:0200000400A258
:100380006F0040009762FEFF938202711303050025
:1003900093830500032E030023A0C2019382420031
:1003A000130343009383C3FFE34670FE976200008C
:1003B000938202D0938212007390523073500030B7
:1003C000735040309731FEFF938181911721FEFFDA
:1003D000130141839702FEFF9382C2C21723FEFFDF
:1003E00013034302638C6200B7B3BEEF9383E3DD74
:1003F00023A0720093824200E3CC62FE93000000CF
:100400001302000013040000930400001305000011
:100410009305000013060000930600001307000078
:100420009307000013080000930800001309000060
:1004300093090000130A0000930A0000130B000048
:10044000930B0000130C0000930C0000130D000030
:10045000930D0000130E0000930E0000130F000018
:10046000930F00009722FEFF9382C2F917730000DA
:100470001303835D9303C00D638E0300032E0300FB
:1004800023A0C20193824200130343009383C3FF5E
:10049000E34670FE9722FEFF938242141763FEFF2D
:1004A0001303835F638A62009303000023A072003A
:1004B00093824200E3CC62FE6F10A076B05FA20090
:1004C0004A53A2004A53A2004A53A2004A53A20030
:1004D0004A53A2004A53A2004A53A2004A53A20020
:1004E0004A53A2004A53A2004A53A2005E53A200FC
:1004F0004A53A2004A53A2004A53A2004A53A20000
:100500004A53A2004A53A2004A53A2004A53A200EF
:100510004A53A2004A53A2004A53A2004A53A200DF
:100520004A53A200364FA200364FA200364FA20017
:10053000364FA200364FA200364FA200364FA2001F
:10054000364FA200364FA200364FA200364FA2000F
:10055000364FA200364FA200364FA200364FA200FF
:10056000364FA200364FA200364FA200364FA200EF
:10057000364FA200364FA200364FA200364FA200DF
:10058000364FA200364FA200364FA200364FA200CF
:10059000364FA200364FA200364FA200364FA200BF
:1005A000364FA200364FA200364FA200364FA200AF
:1005B000364FA200364FA200364FA200364FA2009F
:1005C000364FA200364FA200364FA200364FA2008F
:1005D000364FA200364FA200364FA200364FA2007F
:0405E000364FA200F0
:1005F0008280110422C0ED3FD24273901234825D9A
:10060000125DA25C325CC25B525BE25A725A86494E
:100610001649A6443644C64F564FE64E764E865887
:100620001658A6573657C6565656E65576558A4337
:100630001A43AA42BA40496173002030014739A0E9
:100640001881380021202245B2451481B6883288AD
:10065000AA872E8EDDEE63F1C512C166636AD61CD1
:10066000B70600016365D63A13538601E148972621
:10067000FEFF83A626E69A96942213030002B698FC
:1006800033031341630C0300B3956500B3581501A0
:100690003318660033EEB800B3176500935E0801A7
:1006A000335FDE0313160801418293D60701B37549
:1006B000DE03B30FE6039BA6B62063FAF601C296EB
:1006C0009305FFFF63E4060163E5F6372E8FB385DC
:1006D000F64133D5D50393960701C182B3F5D5030F
:1006E0003306A6029BA7B62063FAC700C2979306FB
:1006F000F5FF63E4070163EBC7323685918F1B2555
:10070000E521814511C7B3D767001CC32322070029
:10071000828063F9D500630F071208C34CC30145FB
:1007200081458280C16763EDF60EB707000163EA79
:10073000F62C93D8860161489727FEFF83A787D9B7
:10074000C69703C30700930E00024293B38E6E4018
:1007500063950E1863E4B6006363C52E3306C54087
:100760003335C500958D338EA540054581454DD364
:1007700010C32322C701828001E6854633D8C60212
:10078000C1666360D80CB70600016368D8261356AB
:100790008801E1489726FEFF83A6C6D3B296902231
:1007A0001303000246963303C3406318030A931EE3
:1007B0000801B3860541135F080193DE0E018545EC
:1007C00093D8070133DEE603B3F6E6033306DE0310
:1007D0009BA6D82063FAC600C2961305FEFF63E409
:1007E000060163EBC6242A8E3386C6403355E603E2
:1007F00093960701C1823376E603B308D5039BA71E
:10080000C62063FA1701C2979306F5FF63E4070158
:1008100063EB17213685B38717411B25C521DDB54D
:100820009307F00F63F3D71E93D88600214829B7AA
:1008300032839306F00FE3FCC6E213538600A1480F
:100840003DB542869306F00FE3F606F51356880091
:10085000A14889B781450145828033186800B3D823
:10086000C500135F0801B3DFE803931E0801B395C9
:1008700065003356C50093DE0E014D8E135E0601F2
:10088000B3176500B3F8E803B385FE031B251E21EB
:10089000637BB50042959386FFFF6364051963721D
:1008A000B518F91F42950D8DB358E503219E337598
:1008B000E503B3861E039B25A62063FBD500C295E6
:1008C0001386F8FF63EB051563F9D514F918C29583
:1008D000B386D5409BA5F821E5B533586600B3969D
:1008E000D601B366D800B3D7650013DE0601B3DFC7
:1008F000C7039398060193D8080133586500331F46
:10090000D501B395D501B365B80013D805013316E9
:10091000D601B3F7C7033385F8039B27F82063FBA1
:10092000A700B6971388FFFF63EBD70E63F9A70EF6
:10093000F91FB697898F33D5C703A19DB3F7C703B6
:10094000B388A8029BA5F52063FB1501B695930714
:10095000F5FF63E2D50C63F0150D7915B695C1630B
:100960001B25F5219387F3FF3378F500135E05010E
:10097000F18F935F0601B302FE02B3881541B30500
:10098000F8033308F80296959B850561330EFE0344
:1009900063F355001E9EC167FD17B3FFF500B377E3
:1009A000F8001B08BE609B87F72163ED080363898D
:1009B00008038145E30E07D4B307FF40333FFF0030
:1009C000B3880841B388E84133936800B3D7D701AF
:1009D000B367F300B3D8D8011CC323221701828068
:1009E000E379FFFC3386C740B3B7C7003308D8406C
:1009F0003308F8407D15B2876DBF13560801C14812
:100A000051BB93D80601414805BB014835B3135388
:100A10000601C148A9B93E8599B7B28855BDC28FB4
:100A200011BFB68F49B57915C297F5B37915C2973D
:100A3000F1B1791FC29661B9791EC29675B32A8643
:100A400001452DB359CA93F7F50F1CA13307C50013
:100A5000A30FF7FEBB6126031CB13CA1230FF7FED9
:100A6000A30EF7FEBB6D16073CB1230EF7FEA146A1
:100A700063F5C606B307A0408D8B3307F5001D8EC6
:100A800093F5F50F9F0701010101B385F502719AF6
:100A9000B307C7000CC323AEB7FE63F0C6044CC354
:100AA0000CC723AAB7FE23ACB7FE3B6C06194CC794
:100AB0000CCB4CCB0CCF23A2B7FE23A4B7FE23A6AE
:100AC000B7FE23A8B7FE93774700E107BA97FD4624
:100AD00032973306F74063E3C60082808CC3CCC3F1
:100AE0008CC7CCC78CCBCCCB8CCFCCCF9387070219
:100AF000CDB7AA8713F7350019C36319061613F883
:100B000037003D47630E0818BB6A162094219841B0
:100B1000BB0778028D486305182394A3943175169A
:100B20008D0594B383C6F5FF8D07414EA38FD7FE85
:100B300003A3150083A855004116131883001B2733
:100B4000E87003A8950098C393968800131788004F
:100B50001B27177198C703A7D5009BA66670D4C33F
:100B6000931687009BA60671D4C7C105C107E36130
:100B7000CEFC1377060151C39821C107C105238814
:100B8000E7FE03C715FFA388E7FE03C725FF2389F8
:100B9000E7FE03C735FFA389E7FE03C745FF238AA6
:100BA000E7FE03C755FFA38AE7FE03C765FF238B54
:100BB000E7FE03C775FFA38BE7FE03C785FF238C02
:100BC000E7FE03C795FFA38CE7FE03C7A5FF238DB0
:100BD000E7FE03C7B5FFA38DE7FE03C7C5FF238E5E
:100BE000E7FE03C7D5FFA38EE7FE03C7E5FF238F0C
:100BF000E7FE03C7F5FFA38FE7FE1377860031C337
:100C00009821A107A105238CE7FE03C795FFA38CBC
:100C1000E7FE03C7A5FF238DE7FE03C7B5FFA38D3E
:100C2000E7FE03C7C5FF238EE7FE03C7D5FFA38EEC
:100C3000E7FE03C7E5FF238FE7FE03C7F5FFA38F9A
:100C4000E7FE1377460059C3982191079105238E3B
:100C5000E7FE03C7D5FFA38EE7FE03C7E5FF238F9B
:100C6000E7FE03C7F5FFA38FE7FE8DA0850503C749
:100C7000F5FF85077D16A38FE7FEADBD9441C10743
:100C8000C10523A8D7FE83A645FF411623AAD7FE98
:100C900083A685FF23ACD7FE83A6C5FF23AED7FE70
:100CA000E36EC7FC1377860011CB9841A107A1051D
:100CB00023ACE7FE03A7C5FF23AEE7FE137746008C
:100CC00011C798419107910523AEE7FE13772600DF
:100CD00011CB982189078905238FE7FE03C7F5FF0C
:100CE000A38FE7FE058A19C2982198A3828094A356
:100CF00094317916890594B3454E890703A32500DD
:100D000083A865004116131803011B27E86003A898
:100D1000A50098C393960801131708011B271761B4
:100D200098C703A7E5009BA66660D4C39316070186
:100D30009BA60661D4C7C105C107E361CEFC15BD02
:100D400094A385057D168507494E03A3350083A826
:100D500075004116131883011B27E85003A8B5003E
:100D600098C393968801131788011B27175198C7BA
:100D700003A7F5009BA66650D4C3931687019BA6D4
:100D80000651D4C7C105C107E361CEFCDDB32A9685
:100D9000630CC5001C2198216385E7003385E7407B
:100DA000828005058505EDB701458280AA8713F786
:100DB00037001DE39F05FFFEFEFE1F06808080803A
:100DC00094433387B60093C6F6FF758F718F01CFBA
:100DD000982309C78507EDBF982301E73385A7400E
:100DE00082808507E9B79107E1BF1880EF3070670F
:100DF000B727004011472398E71001A01F05D82509
:100E0000A000828018802A86D146D1451F05D825AA
:100E1000A000EF40007701C5370500801105148060
:100E200058809F07EC25A00080433C28130934011B
:100E3000BD8B99C7930550084A8550806F30F042AA
:100E4000930650400146930550404A854440EF4088
:100E5000C07685473CB81C381044930964015CA8EF
:100E600093C7F7FF5CB8AD46930500084E85EF4089
:100E7000407129E5930714022687BE863E862945E0
:100E8000B305F640634DE0023387B7009B87B78216
:100E90007D176390F60413060008CE850145EF0028
:100EA000302493578500230BF408A30BA408930563
:100EB00050084A85EF30703B89471CA85480B365C1
:100EC000A702050693850503A30FB6FE3347A702C5
:100ED00045BF0C2390228506A38FB6FE10A34DBFFD
:100EE00058809F07EC25A00080433C28130934015B
:100EF000BD8B81CF3C38930550083B820701930599
:100F000050404A8550806F3050365C4444406946BA
:100F1000930650409D8C95471CA8930550404A85E8
:100F2000EF40A06989473CB81C3893096401104020
:100F30008507819F1CB85CA893C7F7FF5CB85C4429
:100F40003BF11481054738B8A6863E969305000804
:100F50004E85EF4000632DE5CE8513060008EF00B7
:100F6000301893578500230BF408A30BA4089305AE
:100F700050084A85EF30702F5C44BE9444C45080C2
:100F80006F30B04C1307004063769700114718A8E4
:100F900093040040A6863E96930500404E85EF40A0
:100FA000405E19EDCE8513060040EF007013935795
:100FB0008500230BF440A30BA4409305504055BF7C
:100FC000548038809F07EC25A000804393060008DA
:100FD000014693043401930550402685EF40E05DBF
:100FE00085473CB8FD575CB81306000893056401BB
:100FF000230A04000145EF00B00E93578500230B30
:10100000F408A30BA408930550082685EF30F025BB
:101010009D471CA8348058802E84AA84B289F93B4D
:101020002A89EF309042BB1614FFEF00105D11CDFE
:101030008327C900A2852685829711CD1F052236F8
:101040000000EF30902E7D5554808327C900FD5558
:1010500082976DF57D54EF30503F1F050069A20067
:10106000EF30502F1305A005B12CCE860146A28586
:101070002685EF00F0093335A0003305A040E9B71D
:1010800045F8C9BF49BF98813724A0008327C45EB3
:10109000AA842E891304C45E91E713058041EF30C2
:1010A000904B08C00840FD5B41C993068041014652
:1010B00093058041EF4060501C4037072000BA94F0
:1010C00084C31C401F071469A2001305A00598C71C
:1010D000054723A2270198ABF52200409F04809684
:1010E00098003779A200930930041309898E268A63
:1010F0009F0A80841E009305F1002685EF30702042
:10110000AA8B75F9034BF100631D3B011C282309D1
:101110000400BB8D1703BB8027063B97F7010933FB
:10112000D9BFBB1E0B061C28230904003B940707EC
:1011300013054006EF30F00E5E8594813B83170463
:101140003B840705BB9CE7028D471CA8D68465B786
:101150001145EF30500D2308640171BF3B101B1582
:101160003C28BD8B3CA83E288507BD8B3CA8A9C761
:101170001C28F917819F3BF0E7069B07F9049C4365
:1011800082877939D28485BFA13BB5B71145EF304D
:10119000900999471CA885B72D35B1BFBB16DB1840
:1011A0003C28C19B3CA81C48D1838507BD8B139765
:1011B000470038A8BB90D703FD5BBDBF6882142DE4
:1011C0009305F1012A8936C6032AC5008329050142
:1011D0004449A30F0100EF00F0422A84B24609C936
:1011E000AA851F059C69A200EF30F0172285648252
:1011F0008347F101E5DF6389090099C063E63401A3
:10120000B707400063F937051F05B069A200EF304A
:1012100070141F05C069A200EF30F00285455285A9
:10122000EF30F0071F05D069A200EF30D0018545EF
:101230004E85EF30D0061F05DC69A200EF30B0000C
:1012400085452685EF30B0051F054874A200EF30B4
:10125000807F7D5461BF8347A90037064000A68583
:101260005285BB920778393D2A8449B76D33EDBF6B
:1012700018804C45B70740001387F5FF6369F700F6
:101280001F05006AA200EF30F00C7D55148008495C
:101290001377350009C71F05146AA200EDB733871D
:1012A000A50063F6E7001F05286AA200E9BF1080C9
:1012B000D9BB1880EF00502F01C510806F0050255A
:1012C0007D551480289F130101DE2A8413060041F6
:1012D00081450A85EFF00FF79F07EFBEADDE294687
:1012E0003EC2230681009F070C00E11E1344F4FF59
:1012F0004C0001453EC4A3068100DD2383558100D7
:101300002316A1404800F915EF3020761305C1409F
:101310008945EF30807513010141248018801F0535
:10132000EC69A200EF3010031305A005613F1545DD
:10133000EF30206F5D3C0145148098812A849F091D
:1013400080841E001F0AEFBEADDE13094400230097
:101350000400231104009306C04001469305C040D9
:101360004A85EF40802549CD1305500AA13FF1BFC2
:10137000EF30B00D9305B1004E85EF3080782A8BA9
:1013800005ED850AC20A93DA0A0189C42322040002
:10139000230004001C200347B100BBFD0704140810
:1013A00052C6BE9683C6C6FF639BE600CA9794A347
:1013B0001C2085071CA08144E39C7AFB75B793072A
:1013C000F00E8544E31AF7FEBD575CA004A0E5B714
:1013D000CA9798A31C2091C7162413070040636F77
:1013E000D7008507819F1CA0BBE3F70823110400E9
:1013F0009304C4009F0AA08601002DA085446DBF00
:10140000814A8144930B500645BF6C005685EF30EE
:10141000406F39F93E20138717003AA00347C100F7
:10142000A69798A31E243620138787FFE3EFE6FCD8
:10143000138777FF2697A697142383C767FF9BA779
:10144000D7102316F440230007001E24BE94238BDC
:1014500004FE12243A20930786FFE317F7F079166B
:10146000CA850145B5298357C440E39FA7EE2C24C4
:101470009F076469A2009D4698236318B702D8436A
:101480000DC722850297E31105EEEF30007C1305AE
:10149000A0050D3D1F053069A200EF30A06B1F05B0
:1014A0004869A200EF30006B4DB5050BA107E315AD
:1014B000DBFC1F052069A200EF30E06A75B54881AA
:1014C0007D599F0440420F007D549305F10026850D
:1014D000A3072101EF30E062E31985FE4481C88152
:1014E000FD573724A000A305F1002306F100A30651
:1014F000F1002307F10009679307045FBA97DC3313
:101500003749A0001304045F1309095F91C7194507
:10151000EF306051A3020900FD57A307F100814994
:1015200081441F0B40420F00294AB14AE14B0D4C48
:10153000894C114D9305F1005A85EF30805C09C943
:10154000BD3F5145EF30E04D1F05A6695AC301A2CA
:101550008347F1008504638C470D636AFA0A63854B
:10156000970D638EA70DBB93F70193070008B7444F
:101570000F009305D100138504241CC0FD59EF30E2
:101580004058E30335FD9305E10013850424EF3053
:101590004057E30B35FB0D45EF3060488149130A96
:1015A000440093840424FD5A1C4063E3F90AB749BC
:1015B0000F006C0013850924EF30A054FD54E3059F
:1015C00095F89305B10013850924EF308053E30D9E
:1015D00095F60347E1008347D100B98F1307F00F59
:1015E0006391E7081040B725A0009385455F01454A
:1015F000C52C0347C1008347B1009BA7E710639642
:10160000A7068347D10001452303F90089A063861B
:10161000570363E25703E39F77F18509E39C89F160
:101620001F05A7695AC325A09307004089B79F07E4
:10163000000800002DBF85671DBF89670DBFBB9DDA
:10164000B4011945EF30203E1F05AA695AC3C48171
:10165000B3053A012685EF30C04AE30A55FF8509F4
:10166000A1B71F05A8695AC3DDB71F05A9695AC3E9
:10167000F9BF88803729A0009307095F096723A075
:10168000070013053004BA9723A4070023A6070018
:10169000A382070023820700EF30E038EF30E05AE2
:1016A000B7775AC33744A000514A1309095F13049E
:1016B000045FFD5A138B779A9389679A7D1A631595
:1016C0005A01FD5426858480193DAA8461ED7C2051
:1016D0009DEF0D45EF30A034B727A0009387475FFB
:1016E00093065908850703C7F7FF19C3E39CD7FE84
:1016F000130600089306000219A085077D1698239B
:10170000631CD7007DFA2324040085475CB085471D
:101710007CB0232009007DB729483B160730983359
:101720001377F70DBB130758BB62060289077916BA
:10173000414881452543954801A8138706FD636507
:10174000E800B305B802BA95982305E70CC4B707BB
:101750000001E3FCB7FA9F04AC695AC3A5B71307AD
:10176000F7FB019F63E5E800138796FCC9BF0147BB
:10177000C9BF69DE130507FD93168701019D850723
:10178000E186E37CA3FA1375F7FD1305F5FB019DD4
:10179000E3E9A8F21305F7F9019DE3E2A8FC13873A
:1017A00096FA71BFE30F65F1E31A35F1EF30E049C6
:1017B0005145EF30002713053004EF30C026FDBD42
:1017C00028803724A00003454449EF10201501E587
:1017D000EF30402BCDBF2480D880B77B5AC31F0980
:1017E000F025A000096B3744A000AA8AAE84014A04
:1017F0004A9B1304045F938C7B9A138DAB9A8347A7
:101800004B00DDEBD5C8832709009DEF554CFD59F2
:10181000938DBB9A85A8E131AA893DE978207C3077
:10182000631AF704854705075CB078B08327090081
:10183000584414443E9758C463F6E600B697998F0F
:101840002320F9005C20C5FF8329090063F33401DC
:10185000A6893726A000CE861306465FA685568544
:10186000EF3030522DE5B3843441CE9A4E9A232086
:10187000090071B7FD1793F7F70F6311F7041945C6
:10188000EF30601A7D1CE3180CF8E38D09FA2DA0E7
:10189000630495036315A5031945EF30C0181305BC
:1018A0003004EF3040182539AA891945EF30A017C8
:1018B00085475CA0E38509F45285D480EE89013127
:1018C00013053004EF302016EF30203865BF7D5A05
:1018D000E5B709679F07F025A000BA97884782807F
:1018E000814789C901CA2E96AA879F064C6AA20021
:1018F0006394C5003E858280850503C7F5FF1B37CD
:10190000F7501B87E6020A239B37F510A19FCDB73E
:101910009880AA8A2E89328A3684A13B0DE9AA8949
:101920004D3FAA846374AA006379A400A6851F05AD
:101930004C6CA200EF30202319A82A84630D0906FD
:10194000637BA9061F05606CA200EF30A0208D3DCF
:101950007D5485A0A28563738B00896513050A6099
:10196000A53D2A896DD5E364A4FEEFF02FC91C457F
:10197000CA85814613060A6033857A018297AA8553
:1019800009C51F05786CA20075B733042441CA99B4
:10199000CA9AEF30802B5DFC896513050A602D3DE6
:1019A000E39734FBA6851F058C6CA200EF30A01BCB
:1019B000013D22859480374AA000096BB70BE0FFF8
:1019C000D9BFD88340459307704F1307F4FC63FADF
:1019D000E700A2851F05986CA200EF30C018FD5BE0
:1019E0002DA01305A005EFF0FF8D9306805213067E
:1019F000000381453705A300213FAA8B09C9AA85A9
:101A00001F05B06CA200EF3000165E85D4838145BF
:101A1000130600020808EFF0EF82EF00F009AA8534
:101A200001CD1F05CC6CA200EF30E0131F05646DE3
:101A3000A200EF30201265B7930504FE3704A3001F
:101A400093060002100813050402EF00D003AA85D4
:101A500009C51F05EC6CA200C1BFEF009008AA8B5E
:101A600011C5AA851F05106DA2007DBF13060002D7
:101A70000C083705A300EFF08FB119C51F05346DB1
:101A8000A200EF30200D5DB73E303BE307141F0589
:101A90004C6DA200FDB783471402814CB70AA30026
:101AA0003E94054B377AA200B779A2003779A2009D
:101AB000B774A20083D72A02E3F9FCF4E30104F22D
:101AC000835D2400035D4400130784006E8C6E9DCB
:101AD000B307BC41A19F634AAC011C307A20850C3E
:101AE00093FCFC0FBA973E94F1B79B06F7469422FD
:101AF0009D8BB317FB00F58F91E7050C420C135C2F
:101B00000C01F9B793757C0013553C003AC6EF10F1
:101B1000E00232477DD1E68513050AD8EF30A004F4
:101B20001385C9D9EF2030722A208545EF20307700
:101B3000130589DAEF2030714A208545EF20307691
:101B4000138584E6EF20307049BF58824225130682
:101B5000000281450A85EFE0FFEE1F05B46DA2008B
:101B6000EF20507F1F059C6DA200EF20D06D2285D5
:101B70008545EF20D0721F054874A200EF20B06C9D
:101B8000BB6404131F05C06DA200EF20B07C7D5420
:101B900025A81375F40F130600028A85EF20F05173
:101BA0002A8475F58144B779A20013090002B307AE
:101BB0009100882385458504EF20706E1385C9DC6C
:101BC000EF207068E39524FF22855482B2872E8629
:101BD000BE856F20D0161F05D06DA2006F20900B20
:101BE0003B9205FF6F20B03EB707E0FF3E956F20A8
:101BF0003032B308B50037088000AE8663F70801BD
:101C000032872E86BA856F20D0201880AA873705A4
:101C100020003E95EF30F0163335A0003305A0408C
:101C20001480189F130101DB130600418145081839
:101C3000EFE05FE1EF2050511D45EF0010510145ED
:101C4000EF00D055EF00407031469F05946AA00028
:101C50000A85EFE01FEA81450A85EF20B0751F0570
:101C6000DC6DA200EF20106F9F07D61BA2003ECEB6
:101C70009F07CC1BA2003ED09F07F21BA2003ED2C2
:101C800068089F07E01BA2003ED402D6EFF08F97B2
:101C90003737004083274715B70600011545D58F14
:101CA000232AF714EF20F0573D3731C9AA851F05C5
:101CB000F86DA200EF20306BEF20504DEF20D04F99
:101CC000EF20205EAA8511C51F05246EA200EF201B
:101CD0009069EF20703FEF00705AEF308007EF30CF
:101CE000C00305E51305A005EFF0CFDD1F05386E35
:101CF000A200EF2030660818EFF02FE401A01F05C6
:101D0000106EA200EF20106545BF1301014414803E
:101D100028812A84EF20D071B717004403A7471009
:101D20009F06FFFFFBFF9F0500688909758F23A2AF
:101D3000E71003A74713B706040001451367270000
:101D400023AAE71203A74710558F23A2E710EF201D
:101D5000E02A3146A2850A85EFE0BFD90A85814590
:101D6000EF2050650145248138809F07EFBEADDE2E
:101D70005CC19F070C00E11E930445001CC593073E
:101D8000A0052A845EA52946A6850145913E0E241C
:101D90002316A4402685F915EF20304D89451305FB
:101DA000C44030806F20704C389F130101DEAA843C
:101DB0001306004181450A85EFE0DFC89C441F07F8
:101DC000FFFFFF000145F98F1F0712005A006393C0
:101DD000E7023764A000A1461386C400B14513058D
:101DE0000460EF30007A0A8541371545EF207043D3
:101DF000130504601301014134809F070C66A000A5
:101E00008823828038259307200D6306F7007D55CF
:101E100082807D553481388104495C492E84B334F5
:101E20009000BB9907FFEFE07FFD2AC67DD1EF2030
:101E3000D0613245FD555C450145829761FD9F07A4
:101E40000C66A000054798A304A00145E1B73880BF
:101E5000F3240030F37704303764A0009307C461A3
:101E60009E231304C461A19F89EB9F071466A00001
:101E70009C4381C78685014582979F071066A00015
:101E80009C4389C786851220014582971E20A19F09
:101E900089EB8D8093C4140085889F071866A00085
:101EA00084C31E208507A19F1EA01E20A19F81EB39
:101EB000930530061305100330806F30A0550F00D6
:101EC000F00F0F00F00F348038803764A0009307C4
:101ED000C4619E23A19F81EB9305F00613051003B7
:101EE00030806F3020531304C4611E208684FD1798
:101EF000A19F1EA09F071066A0009C4389C78685EE
:101F00001220054582971E20A19F85E79F07146632
:101F1000A0009C4381C7A685054582979F07186648
:101F2000A0009C4399E3F36704300F00F00F0F000B
:101F3000F00F348018802A86B146B1451F0520660F
:101F4000A000EF3000640145148038802E84E14603
:101F50000146E145AA84EF304066930784FF1F07DE
:101F60002C66A0001385B401F19B71991CCBE1177D
:101F7000898F48C7A19F5EA11CC79D6793874707AC
:101F80007EA1232005003480C9B7B766A0009387DF
:101F9000C662DC479386C66299E30145828075DD9F
:101FA000F2231D6713084707630606011307C7C618
:101FB000E315E6FE0D0571991D67219D8148130605
:101FC0004707130885001303C7C603DE6700DA233B
:101FD0006312CE046375E802098F3E9861172312DD
:101FE000E8002313C8001D671307C7C68CC3FAA3F4
:101FF0009842CAA33A9588C2138587008280636B92
:10200000A7001D661306C6C68CC3F2A39042329782
:1020100098C2DDB72107BA97984A63EFE700E39EBD
:1020200008F6D8465E2303AE0601A107B308F70001
:1020300063EAC801DC468548FA23E30867F8E3064B
:10204000C7F8A1BF035E6700631BCE0003DE680014
:102050006317CE0083D84800C6975EA3BA88468728
:10206000D1B71880868510800DB70DC50357E5FFE1
:102070009F076C6C0000631FF7009D6793874707FD
:10208000231FF5FE1F072C66A0008356C5FF5C4387
:10209000B6975CC301458280C9BF18804D3B01459E
:1020A00014801DB5788E2A89AE8AB28481451306C4
:1020B000000408103AC6368A3E84EFE0BF98130643
:1020C000000881458810EFE0FF9702CE3247639405
:1020D0000A007D55748EE30E0AFEB7070001E3FA8D
:1020E000F4FE3B1CF7209F07009116026309F90CD0
:1020F0001F066C6EA200CA852285EF00506179F937
:1021000013F9F403B3892441639F090A9306000875
:102110000146930500088810EF30204ACA863386AE
:102120003A01930500088810EF30A0455DF19C113D
:10213000CA97130700F82380E7F8930900043B626D
:10214000093893090008139734001396B4019F07C8
:1021500000FF00009BC7E7501B26E6705D8EB707A7
:10216000FF009BC49716458E1385C9FF9C1032CE85
:102170009146700891453E95EF30A04039F995465B
:102180004E868C102285EF00B06629F581452285A8
:10219000EF00506D21F1130600040C102285EF10A2
:1021A000000B0DF9930600021010930500025285F2
:1021B000EF30203D3335A0003305A04021BF1F067E
:1021C0008C6EA2000DBF95464E86D6852285EF0007
:1021D0003062E31105F081452285EF00B068E31B12
:1021E00005EE014681452285EF106006E30005F209
:1021F000D5B59F074466A00003A3870063030300CF
:102200000283828015C118419F074466A00098C3CD
:102210005841D8C3184598C7184998CB584DD8CFBE
:102220001851014598D382807D5582809F0744666E
:10223000A00003A3C7016303030002830545828056
:102240009F05AC6EA2001F05B06EA20009A0B76783
:10225000A00023ACA77AB767A00023AAB77A828030
:102260002880EF0070392A8419C1EF00303A2285A6
:1022700024801881EF00903909E52AC6EF00D03A92
:1022800032451481828028812A8405452EC632C4B5
:1022900036C2EF0050692246B2451247B2868547E2
:1022A0002E861F0500911601A285ED3B2A84054567
:1022B000EF00704022852481188313064002814577
:1022C0006800EFE02FF8EF10A00D593FEF00103934
:1022D0009F078422A20068003ECA2D37953701452A
:1022E000148318807937EF10800CEF00D03E014541
:1022F000148048805D339F076866A0009C2399E79F
:102300004D33014481442285A68544802A89EF10FB
:1023100010552A844A85AE846933F5B72881D13FA8
:102320002A842EC6EF10B054B2459F0740420F00DA
:102330003337F4022A868146B385F5023305F40269
:10234000BA95EFE0AFAF24814880813B1F096966F1
:10235000A0008347090089C7A9330144228544802E
:10236000AA84EF10A0052A8401C526851D3BFDB770
:1023700085472300F900D5BF488005339F0769666C
:10238000A0009C2399E7313B014481442285A68526
:1023900044802A89EF1040052A844A85AE8411338F
:1023A000F5B79F076966A0009C23B1C348802A84C3
:1023B000EF10104D9307803EB305F4023334F4025E
:1023C000B384A5023304A402B3B5A5022E946D37DD
:1023D0003389A400B3349900A295AE94713FE3EF22
:1023E00095FE6394B400E36B25FF014544807D5561
:1023F00082809F076966A0009C238DCB48802A8439
:10240000EF101048B304A4023334A402B537338963
:10241000A400B33499002E942694B93FE3EF85FECF
:102420006314B400E36B25FF014544807D55828031
:1024300038803767A00093070767DB97A718944396
:102440002E862A84CE2B9304076799C2C8478296AA
:102450005B948418231A040034809F07B866A00098
:102460005B95A74C1C4103A3870063060300D04380
:10247000CC478843028382809307C004B307F502E8
:10248000B766A0001387866B9386866BB305F7004B
:102490009041B107BA97410613870704637BE600B2
:1024A00090C15B95A64C1E2523150500FD171EA5A2
:1024B00082809CC1FDB738801F04B866A0005B1401
:1024C000A44C04403E2405468C40BE95EF00907E0F
:1024D0002A240505219D2AA4DC443335F500134543
:1024E0001500348048812A841306F100A5459F0415
:1024F0007066A00023070100A30701005B99841800
:10250000EF00907D8347F10099CBDB948418DE289F
:1025100091C79C4081C785452285193F4481054666
:102520009305E1002285EF00107A83564901832745
:10253000C9000347E100B69798A3835749010357A1
:1025400009018507A19F231AF90063E5E700854586
:102550002285F93D1306F100A5452285EF00D077CD
:1025600055B75881FD1593F7F50FBBF36705B775A0
:10257000A200938505EB9B85F5049C412A84828704
:102580009F04B866A000A3070100DB94A44C9E241E
:1025900081EB014689452285EF0010740145548185
:1025A0001306F1009D452285EF0010738347F1006B
:1025B000F5F7228509376DD52285453522856D3D94
:1025C000F9B71306F100A5459F047066A000230724
:1025D0000100A30701008149EF0010705B99841886
:1025E0008347F10081CFDB978418DA2B45DBF82B8A
:1025F000098B4DD7BE2BE3E3F9FA71A0054693058D
:10260000E1002285EF00306C832709008509C209AB
:1026100093D9090181EB1306F100A5452285EF004E
:10262000B06B7DBF835649018327C9000347E10092
:10263000B69798A383574901035709018507A19FBE
:10264000231AF900E3E9E7FC81452285D533E1B798
:102650001306F100A5459F047066A0002307010042
:10266000A30701008149EF0030675B998418834715
:10267000F10091CFDB978418DA2BE30107F2F82BF6
:1026800093761700B5D6814522855D3301BF054697
:102690009305E1002285EF00106383270900850977
:1026A000C20993D9090181EB1306F100A5452285E2
:1026B000EF0090626DBF835649018327C90003472D
:1026C000E100B69798A3835749010357090185078D
:1026D000A19F231AF900E3E9E7FC81452285893BA4
:1026E000E1B79F077066A000DB97A718DC4381C79E
:1026F0008145014582972285F5334DB59F07706668
:10270000A000DB97A7189C47DDB75881894763ED88
:10271000A70ADDC983C81500130820076366180BD4
:1027200083C805006362180B45C203484600BB76A8
:1027300028040348660063E907095C323BF327027B
:102740003769A0009307C966AA979C23AA84130936
:10275000C9660144A5EBBA8936C632842EC4EF108F
:10276000300B6387090683A60900BDC203A7490091
:1027700025C31305C0043385A4021F077066A0009B
:102780005B17971854C783A64900B247224616AB79
:102790001F07B866A000A2869305C500BA952A97C0
:1027A0000CC34CC3268511479F056225A200EF008C
:1027B000704B2A8401E92699854726852300F90074
:1027C000EF10100622855481370400800504DDBF18
:1027D0001F0444100080FDB74880BB7515031F0916
:1027E0006C66A0002A99834709002A8481449DCF02
:1027F000EF00304BAA842285EF10B0021F057066EF
:10280000A000E1460146E1455B158518EF20F05A2E
:102810001F05B866A0009306C00401469305C004D6
:102820005B15854CEF2070592300090026854480F4
:10283000B70400808504DDBF7881A30701003B77E2
:102840001503A1CD39CA9F076C66A000AA979C23E7
:10285000AA84A1CBAE893289EF10C07FAA8A4E9993
:102860004E8A33043A4163182A01D6852685EF1033
:10287000A07E228574811306F1009D452685EF0018
:10288000B0458347F100E5F3D28513041A000546ED
:102890002685EF003042228AE9B73704008005041C
:1028A000C9BF1F0440100080E9B778813B78150349
:1028B000B1CD29CE9F076C66A000AA979C23AA845D
:1028C000B1CBAE893289A3070100EF10A078AA8AA4
:1028D0004E994E8A33043A4163184901D6852685BC
:1028E000EF108077228574811306F100A5452685B7
:1028F000EF00903E8347F100E5F3D28513041A0000
:1029000005462685EF00303C228AE9B7370400806F
:102910000504C9BF1F0440100080E9B73B7A0503D6
:102920009F076C66A000AA979C2391CF188113067D
:10293000F100A545A3070100EF00103A8347F1001D
:102940003E85148181473E8582805880AA89EF1098
:102950006074EF102075EFF04FF4AA84EF00707CE4
:102960001C411F099C67A0002320A900829719C55C
:102970002A842685EFF0EFF2228554808327090010
:102980004E859C4782972A842685EFF08FF16DF45F
:102990009F07A167A000054798A3F9BF9F07A167FC
:1029A000A0009C239DCB48808544FD5763E5A4028D
:1029B0002A84EFF08FEE9F079C67A0009C432A8932
:1029C00022859C4B82974A85EFF0AFED9F07A06769
:1029D000A00084A381473E854480FD573E858280C8
:1029E0009F07A167A0009C2399E37D5582801881F1
:1029F000EFF0AFEA9F079C67A0009C432AC6DC4B20
:102A000082973245EFF0EFE99F07A067A00023808F
:102A1000070001451481B767A00003C7177A1DC7D7
:102A200028801384177A9F07A067A0009C2391C376
:102A3000453F9F079C67A0009C4399C3DC43829756
:102A4000EF100066014523000400248001458280C8
:102A50009F07A067A0009C2399E37D558280188181
:102A6000EFF0AFE39F079C67A0009C432AC69C4FF2
:102A700082973245EFF0EFE2014514811880EF10A4
:102A80007062A92203230500108002836881A307D6
:102A900001007D549307F00F63EEB70205CDBB7DB7
:102AA00006082E843289AA8415222A8AEFF0EFDEE6
:102AB00083270A01AA899305F100228582972A8437
:102AC00001ED8347F1004E8533D62741058A90A05A
:102AD000EFF02FDD228564814E85EFF08FDC7D5491
:102AE000D5BF88807D5431C29307F00F63EFB702E2
:102AF000B387C500130700106369F7021DC532894B
:102B0000AE892A8AE1202A8BEFF02FD9AA8A814444
:102B100083270B01B3059A003385990082972A8495
:102B200019C55685EFF0EFD77D5422858480850442
:102B3000E3E024FF5685EFF0CFD6C5BF68817D5412
:102B40009307F00F63E4A7043BF115082E89AA84CC
:102B5000A3070100A5282A8AEFF02FD483270A01B2
:102B6000AA899305F1002685829709C54E85EFF065
:102B70004FD329A88347F100B3D72701858B89CB91
:102B80004E8537040080EFF0CFD1050422856481A3
:102B90002685EF10F05185458327CA01B39525019D
:102BA0002A86819D268582972A844E8569D0EFF0FA
:102BB0004FCF7D54E1BF19C59F07A467A00088C30C
:102BC0000145828037050080050582809F07A46744
:102BD000A000884382809F07A867A0002380070089
:102BE00082803880AA84EF10B04C2A842685EF10AA
:102BF000904C9F079024A0009B8787049C430581ED
:102C0000219D1B85A7043480188001455522B76794
:102C1000A00003A7077B9F060024A00094225C432A
:102C2000014593F707F0D58F5CC39F07A867A00005
:102C3000054798A314809F07A867A0009C23A1C7FD
:102C400048802A849307F00F63E3A704A9C1AE84E8
:102C5000493F2A892285EF10B0459F07B067A00041
:102C60001B85A7041841C17605881C43F58F9F0674
:102C70005A5A0000D58F1CC38327090011C0A183B5
:102C80009CA0014544801F05911300808280370578
:102C900000800505C5BF9F07A867A0009C2399EF8A
:102CA0001F05911300808280B3058900228561375A
:102CB00019E90504E36A94FE0145448048802A89A5
:102CC000AE840144C5BF7D55CDBF9F07A867A00056
:102CD0009C23C1C358802A849307F00F63EFA70693
:102CE000B764A0002E899389047BEF10703C1B858C
:102CF000A9041841C17622851C439384047BF58F77
:102D00009F06A5A50000D58F1CC3EF10703A1B8548
:102D1000A9041841130540065C4793E717005CC7F8
:102D2000EFF02FED2285753D9377140091C32209B2
:102D3000232025012285EF10B0379B84A4049840FE
:102D4000130540065C47F99B5CC7EFF08FEA01452D
:102D500054801F059113008082803705008005058F
:102D6000C5BF9F07A867A0009C2395C75880B2895C
:102D70002E84AE843309B540B387844063E43701C1
:102D8000014554808C203305990001463D3F850460
:102D900065D57D55FDB71F059113008082809F0783
:102DA0000024A00088C382801F050424A000828024
:102DB0006347A0020A051F078824A0009F07B06789
:102DC000A000AA973A951841014598C3B727A000DB
:102DD00003A7C7489F07AC67A00098C382807D55B2
:102DE00082801880EFF06FABEF208066EF10103319
:102DF00001A08280014582809F07BC67A0009443A8
:102E000005476383E60098C3014582809F07BC673E
:102E1000A00098433B13070123A0070001458280CF
:102E20001F05020030658280371711448327078110
:102E300093E737002328F7800F00F00F82801C41B2
:102E40001F07C467A000DB17F71CD83B3B13070123
:102E5000A38A0700054582800145828048809F043F
:102E6000C067A0009C200549638527053765A00041
:102E70001304457C93064005014693054005130560
:102E8000457CEF2080739F071868A0000947938650
:102E900007021CC09387070418C42322040054CCE3
:102EA00058D0232004021CDC38C0232E04022380C7
:102EB000240101454480B7071044B8439316250008
:102EC0003D453315D5001345F5FF798DA8C30F0097
:102ED000F00F0145828038801F04C067A0001C20CD
:102EE0008DC79F07C467A00001458443E9370545A6
:102EF000D9370945C93793060006014693050006F0
:102F00002685EF20806B23000400014534809F0755
:102F1000C067A0009C232A877D553B9A27013B74FC
:102F2000370471C693D72501B776A20093F7C7037C
:102F3000938646ECB6979C43828793060002AD4584
:102F4000014529A8E181BD893B852501BB86250274
:102F50007D55828093060004AD450D451F08FFFF97
:102F6000FF00B30707011F08105110441B08F81099
:102F7000832708009F08FFFF0FFFB3F717019BA7E8
:102F8000A7281F05FFFFF0FFE98F9BA7B72023208D
:102F9000F8000F00F00F37A510441E0793054500F9
:102FA000BA9589822A9781479CC10F00F00F084289
:102FB00008C30F00F00F85071106E397F6FE0145E1
:102FC000828082801F05030020658280D146A9454A
:102FD00085BF93060004AD45094549B79306000235
:102FE000AD450545A5BF93060002B14591BF82805E
:102FF000B5C568801F04C467A0005B14A41C5840BA
:1030000036891444930717000440B3F7D702328A75
:103010009B84E408AE89C1460146C14526855CC053
:10302000EF20A0599C409376190013794900F19B39
:1030300033372001D58F9BA7E7029CC0DC2423A453
:10304000340123A24401C19BDCA463060900854727
:103050007CB801456480A30B0400E5BF1F05A400F4
:10306000206582806880B769A0001389497C5B195C
:10307000A91C83270901054A2A84B314AA0093894D
:10308000497CADCBA5C983474901ADC7EFF09FD6B9
:1030900035C1A30A0900230B4901B787104403A7D0
:1030A0004760D98C23A297600F00F00F1F09FFFF24
:1030B000FF00B30724011F09305110441B09F91008
:1030C000032709005B94891C14449377F70F850745
:1030D000B3F7D7020840137707F093050002819FEA
:1030E000B364F700EFF0FFD0232099000F00F00F3A
:1030F00001456480DB97891C238B0700B787104448
:1031000003A7476093C4F4FFF98C69BF3787104465
:103110008326076085473395A700758D2320A76018
:103120000F00F00F82809307F5FF3BF047035880B4
:103130002A84EFF0AF8F370710442C4393162400F6
:103140001335150033D6D5003D8A050509C61F0580
:10315000050020655480B317D500CD8F3CC30F0008
:10316000F00F3C43B3D7D700BD8BE312F5FEB78613
:10317000104403A646608544B394840093C7F4FFCB
:10318000F18F23A2F6600F00F00F24D70F00F00F8D
:103190001F0980969800B709104483A74901E58F5D
:1031A000A5CB23AA99000F00F00F37090080EFF09C
:1031B000EF8735E5136909509F0450104400A2942D
:1031C000A20423A024010F00F00F1F09C467A00070
:1031D0005B19891C03250900EFF0AF81C8D00F00EF
:1031E000F00F23A004020F00F00F8947DCD40F007A
:1031F000F00F2285213F03250900232209009306B1
:103200000002014693050002EF20203B014599B7DB
:1032100005457D19EFF0EF9DE31109F879B79F0798
:10322000000A00003369F90041BF7D558280BB77F9
:1032300005039F0704A010441B85A70E4147814743
:103240001CC10F00F00F8507E39CE7FE82803B78EE
:103250004644A8819F07C467A000DB97A71CF83BE2
:10326000B2892E892A8441CFF82B2AC681443B1982
:103270001701984B39CF944FC84770009F053E2ED9
:10328000A20002976346A00CB7071044BC432285F6
:10329000793F1F05B20020653787104483264760B9
:1032A0008547B397870093C7F7FFF58F2322F76011
:1032B0000F00F00F630E0900B7A710441E04138718
:1032C0004700229793D929003E9481476398F908D3
:1032D000A481930A803E1F0A7017000032453D35D5
:1032E00019C1014555BF054563E89A00EFF06F909D
:1032F0008504E39544FF49BFEFF0AF8AD5BF9F0433
:10330000FFFFFF00B7571044AA94A204138B471382
:1033100093870713269B338AF400814A130C803E5F
:103320009F0B7017000003270B0083270A00054539
:103330006301F70463685C01EFF0AF8B850AE394E7
:103340007AFF99B7EFF0EF85D5BFEFF08F85A9A091
:103350009F07B2002065E316F5F83DB71CC30F00C8
:10336000F00F144085071109232ED9FE85B77D552E
:103370008280EFF00F889F07C0511044014ABE942D
:10338000130B803E9F0A701700009C40B9DB054577
:10339000E36D4BFBEFF0EF85050AE3185AFFEDB53F
:1033A0009F077868A000054798A3014582809F0782
:1033B0007868A00023800700014582801880A92832
:1033C00005E13777A0008326C7879C4293E7470033
:1033D0009CC20327C7871C4393E727001CC31480A4
:1033E0001F0580110080E5BFB777A00083A6C787BF
:1033F000054698421367170098C2FD563E878327FB
:10340000C7879C439183858B6387C700FD16E5FAC8
:103410000145814582800DA01880EF00F04509C963
:10342000EF0090459F077C68A00088C30145148089
:103430001F0580110080E5BF9F077C68A0009C43AA
:103440008C47C8438280BB75050389C99F07806884
:10345000A0001B85A7040CC10145828037050080B0
:103460000505828028822A842ECE32CC36CA3AC8FC
:103470003EC6EF0090371F058068A0001B0585043D
:10348000084101CDD24691CA03230500B247424705
:103490006246F2452285208202831F054710008084
:1034A00024829F078068A0009B87A7049C4303A3F6
:1034B000470002839F078068A0009B87A7049C4366
:1034C00003A3C70002839F078068A0009B87A7040F
:1034D0009C4303A3070102839F078068A0009B878A
:1034E000A7049C4381C703A3870002831F054710DD
:1034F0000080828009C6FD571CC2014582803705C5
:103500000080050582809F07A868A0003E951421D1
:103510001307E003BBF306039F073C6FA200B697B7
:10352000982318C2014582809F078C68A0001B85E4
:10353000A70423200500014582809F079C68A00006
:103540001B85A704184185891C47F99BCD8F1CC793
:1035500082809F079C68A0001B85A7041C41014531
:10356000FC43858B1CA282809F079C68A0001B8562
:10357000A7041C410145FC438583858B1CA28280E6
:103580009F079C68A0001B85A7041C410145FC43C4
:10359000819F858393C71700858B1CA282809F071C
:1035A0009C68A0001B85A7041C410145FC438D833A
:1035B000858B1CA282809F079C68A0001B85A704A6
:1035C00019E20145828018417C43858BF5FB850516
:1035D00083C7F5FF7D16219E5CC3DDB71F079C687E
:1035E000A00081471B05A70463C4C7003E858280F5
:1035F0001441F842218B7DFBD4423387F5008507C7
:1036000014A3DDB79F07406FA2009B87B70403A3F5
:1036100007006303030002831F05471000808280B8
:103620009F079C68A0009B87A704984393F63500EA
:103630005C53CD9B9BA7D704F19B93763600D58F27
:1036400093E707015CD39F07A868A000AA978CA303
:103650009F07AC68A0003E9510A182803B630604E2
:10366000370500800505828018809F07A868A000A4
:10367000AA978C23019E6D37014514803B63060495
:10368000370500800505828018809F07AC68A00080
:10369000AA97B2859023819D613701451480A9C105
:1036A000488092053374B6022A89B354B6021A04CC
:1036B0003354B402854551359F079C68A0009B8711
:1036C00027059C4313F7F40FA19C98CBA180C4C796
:1036D00081454A851374F403C0CB40806FF0FFE549
:1036E00082809F079C68A0001B85A70418418D89D4
:1036F0001C47CD9B9BA7B7041CC782809F079C6873
:10370000A0001B85A704184185891C4793F7F7F78C
:103710009BA7B70E1CC782809F079C68A0001B85D3
:10372000A704184185895C57E99BCD8F9BA5B704F9
:103730004CD782809F079C68A0001B85A70414417A
:103740009C4E3BF7050E3777A200130747F09B0509
:10375000B70498410287058ADD9B9BA7C7069CCECC
:103760008280058AED9B9BA7C704D5BF058AF99B7C
:10377000D18FF5B7058AF59B9BA7C702CDB71880F7
:103780003336C000B5457D37014514801880333687
:10379000C000B14545370145148018803336C0005C
:1037A0009145493F0145148018803336C000894552
:1037B0005137014514809F079C68A0001B85A70412
:1037C000184185891C4793F7F7FD9BA7B70A1CC7CB
:1037D00082809F079C68A0001B85A70418418589EB
:1037E0001C47BD9B9BA7B7081CC7828028802A84E2
:1037F0003B87050181C5BB8205022480208065BF0F
:103800008545553F854522852080E1B76D37814547
:10381000DDBF38814C22B2842A84E135CC30228548
:10382000F13DEC202285D9378C4022852EC6EF0051
:10383000807DB2452A862285EFF07FE601453481FE
:103840009F079C68A0001B85A704184185893C4BF5
:10385000F99BCD8F3CCB82806881B68413192500FB
:103860009F06946FA2002E8AB38526018C41944254
:10387000BA891F079C68A000330627010CC214C335
:10388000CC201F079868A0002A973EC62300070097
:103890002A84EFF01FE5CC302285EFF03FE6EC20E4
:1038A0002285A93781452285613F8C4022852EC41F
:1038B000EF006075A2452A862285EFF05FDE29457C
:1038C000EFE03FB3B2478DC79033AC332285EFF0C2
:1038D0003FD59F078C68A000CA9723A04701854564
:1038E000BB81090381452285EFF01FE30145648117
:1038F00005468545E1BF1F053024A000828019C51B
:103900009F07B068A00088C301458280370500800A
:10391000050582809F07B068A00023A0070001452D
:1039200082809F07B068A00088438280B727A000EC
:1039300083A7874799C71F07B468A0001CC3014528
:1039400082801F050012008082809F07B468A0005B
:1039500023A007008280B777A00083A7478B1F07AB
:103960005A5A5A5A98C782809F07BC68A000884359
:1039700082809F07B868A00088C38280F9B77DB7AE
:103980003880B777A00083A6478B9304107D3E84D0
:1039900098561367170098D60327448B1C578583C6
:1039A000858B99CF404BEF0060719307803E2A864C
:1039B000B335F40281463305F402EFC03FC83480CA
:1039C000FD1489C40545EFE0DFA2F9B70145C5BF85
:1039D000B777A00003A7478B5C4793E717005CC746
:1039E00082801880F537B777A00003A7478B1C4B60
:1039F000F99B1CCB14804880AA84EF00206C89E4DA
:103A0000370500800505448033049502335994023C
:103A1000EF00C06AE316A9FE3B6AF4FF9F07BC688B
:103A2000A0003779A00084C38327498B9F045A5A8A
:103A30005A5A137404F084C36D378327498B984B0B
:103A40001367470098CB984B1377F7FB98CB984BAD
:103A50001367870398CBC8431375F50F498CC0C310
:103A600084C701454DB728812AC6A53F3245377422
:103A7000A0000DE10327448B1C4B93F7F7F71CCBF9
:103A8000813F0327448B1C4B93E717001CCB2081FD
:103A90006FF07FEC3B1BF5010327448B1C4B93E736
:103AA0000708F1BF1F054824A000828058802D2DF3
:103AB0009F09D068A00023A0A9001F09C468A00026
:103AC000052D2320A9009F04C068A000352588C0CB
:103AD0001F04CC68A0002D2508C03D259F07C8689D
:103AE000A00088C383A7090099CB8327090081CB55
:103AF0009C4091C71C4081C719C1014554801F05D6
:103B000043130080E5BFB777A00083A6C78C1F07CB
:103B1000FFFFFF3F798DDC46370700C0F98FC98F63
:103B2000DCC682805881D52BAA84DD2392471F07EB
:103B3000FFC7FFFF2A8993F7778093E78702F98F02
:103B40003EC285473EC402C60144B779A000480082
:103B5000AD26014685450545692ED92683A7898C62
:103B60009C43858B91CF4A85EFE0BF889307140073
:103B7000636694001F054413008054813E84C1BFD6
:103B80000145E5BF48819C212A842E898E0793E751
:103B900017003EC29307F5FF3EC402C66137AA84F0
:103BA0000DE54800192E854702C063E28702B7770A
:103BB000A00083A7878C024793352400014698C351
:103BC00093C5150001453526A12E26854481B306EF
:103BD000F90094223307F1008507A30FD7FEF1B750
:103BE0001881EFF03FF499476C0005452306F1007A
:103BF000513F19E1EFF01FF31481488636C62A8938
:103C0000AE843284F13FAA87B24639E936CA480801
:103C1000B98236CE22CC55244A85EFF0DFEEA2865B
:103C20002686930500040810EF10B015FD570DE926
:103C3000137634003336C0001B068644219E1C10C8
:103C40000147B775A00093160701C18263ECC60057
:103C5000054685450145712CE124EFF0BFECAA87AC
:103C60003E85448683A6858C884391079B86E6041F
:103C700088C20507C9BF28812A84EFF03FE3EFF02F
:103C80007FEA1DE931469F054C5FA2004800EFC066
:103C90005FE648001D24014685450545992C4924C9
:103CA000B777A00083A7878C1F07FFFFFF009C4307
:103CB000F98F1CC0EFF01FE72481C167636CF60C1D
:103CC00098814049B284AE892A89054AB77AA00012
:103CD00025E0B777A00083A6478C93D9090113D6B6
:103CE000F4009C4E014793950701C1819BA53521A6
:103CF0008CCE93771600C1CF9C4A1F06FFF0FFFFC2
:103D00003D8BF18F9BA7E7109CCA032549000D242A
:103D10000325C9009377857F91C3892CB777A000CD
:103D200083A7078D054798CBEFF0DFDF01450DA096
:103D30001C206380470399C7BB86E7021F05451314
:103D4000008039A0083093052400EFF0BFE315CDC3
:103D500094813820834B3400034B44000E071367D3
:103D600017003AC252C402C6EFF0DFDB4800B122AE
:103D7000014685450545B52A652283A78A8C9C4363
:103D8000B3D77701858BE39B67FB190491B7058255
:103D9000050785B737050080050582808885AA89D3
:103DA0002E8AB2841304000493DAE6003689377B46
:103DB000A00099E00145A1A8EFF0DFD629E963F35F
:103DC0008400268448004AC222C456C6FD204E857F
:103DD000EFF07FD3054605458545212A912293774B
:103DE0003400B337F00003258B8C9B87874414087D
:103DF000A19F0147368693150701C18163EAF5004B
:103E0000A286A2855285EF10C07719C97D55848599
:103E10009B05E5048C410507910623AEB6FEE1BF84
:103E2000A299229A818C71B788809377F503130445
:103E300000041D8CAA892E89B284B68A6373860019
:103E40003284D6862286CA854E85EFF01FDB2A8A09
:103E500005E9818C95C42299130B00044E94A68920
:103E600063749B0093090004D6864E86CA8522851A
:103E7000EFF0BFD801E9B38434414E994E94E5F098
:103E8000528584802A8AEDBF38822EC6AA84328465
:103E9000EFF01FD5B2450DE148082ECA02CC02CE84
:103EA00029282685EFF03FC61346140081450145B9
:103EB0008920BD20EFF01FC73482B777A00003A68A
:103EC000C78C1C410C45184693D63700819E13774A
:103ED00007F0558F5441AD839D8B9D89C607FD1614
:103EE00093F6F6039BA7B7089BA7D71218C61CC268
:103EF0008280B777A00003A7C78C058985891C43FA
:103F0000058A93F7F7EF9BA7A71093F7F7F79BA7FF
:103F1000B70EDD9B9BA7C70693E737001CC38280C3
:103F2000B777A00003A7C78C1C43858BF5FF828061
:103F3000B777A00003A6478C370700809F06FF00D5
:103F4000FFFF1C42D98F13573500019FF58F9BA7A8
:103F5000E7109356B5009D8A2D8193F707FC1377E0
:103F6000850333E5D700598D08C28280B777A0005A
:103F700083A6478C135735001F06FFFF3FC09C42A6
:103F8000019F2D81F18F9BA7E72C1F07FFFFF8FFF3
:103F9000F98F1D899BA7A72037070040D98F9CC2A6
:103FA000828038803774A0002E87AA861306F00717
:103FB000930500081305848DEF1050742A8693072B
:103FC000848D3B1305FF9304848D982011CFB29705
:103FD000238007009F07D468A000882381469305AB
:103FE000848D30806FE05F85348028802A84EFF0F4
:103FF0009F90AA85228520806FF0EFC49F076C24D4
:10400000A0008CC382809F076C24A000884382801C
:10401000BB130502B7D70044054798DBD8DB828085
:1040200082808280397106CE22CC2ED232D436D60E
:104030003AD83EDA42DC46DE11C92A84EFC01FD7E7
:1040400011C54C1022852EC6EFF0BFF5F240624438
:10405000216182806FE06F842E856FE08F84B75777
:104060000040D84F984FC84F8C4FA19D82809F072A
:104070007024A000884382801F05C0040044828011
:104080009F077424A000884382809F077424A000A7
:1040900088C382801880EFF0FFA010806FF03F8609
:1040A0006FF05F87828028802A84EFD01FFF9F07F0
:1040B0007C24A00080C320806FD0BFFE9F077C249B
:1040C000A000884382801F051470A20082800545ED
:1040D00082801F053070A200828037052000828018
:1040E0001F05FFFF9F0082801F050001004882809E
:1040F0001F050002004882801F05400200488280A0
:104100001F050003004882801F05000400488280CC
:104110009F078024A000884382809F078424A000FA
:104120008843828082800145828082805881EFF0BE
:10413000DFFEAA84EFF0DFFD930780023EC28547D1
:104140002A8902C63EC40144B779A0004800EFF0B6
:10415000DFD6014685450545EFF0BFD9EFF05FDCBE
:1041600083A7898C9C43858B91CF4A85EFE06FA80C
:1041700093071400636694001F0544130080548164
:104180003E84E9B70145E5BF48812A892E84B2847F
:10419000EFF0DFF992471947E19B93E717003EC222
:1041A00063040900130700059247480002C493F70F
:1041B00077809BA7E70693F7F77F3EC202C6EFF032
:1041C000DFCF014681450145EFF0BFD2EFF05FD56B
:1041D00085473EC4B777A00083A7878C0E0413647D
:1041E000140022C202C684C34800EFF01FCD01466E
:1041F00085450145EFF0FFCFEFF09FD24481188154
:10420000019D85470E053EC402C62AC2EFF01FF28B
:104210004800EFF09FCA014685450545EFF07FCD88
:10422000EFF01FD0B777A00083A7878C8843148155
:10423000B70702006368F500B707400063ECB700FA
:10424000814705A0A1676369F500370740008547EE
:104250006379B70001458280B7074000E3ECB7FE01
:10426000894718801F074C70A200DB17F70C9033AA
:1042700085450545EFF05FF10946930510030545B7
:10428000EFF09FF001451480188071468545054583
:10429000EFF09FEF094693051003054510806FF07E
:1042A000BFEE1881680002C6EFF0FF9C01E93247BB
:1042B0009F07C84016006314F70079201481370562
:1042C00000800905E5BF78802A898D449549130A45
:1042D0005003B77AA2004A85EFF07FF21374F50F0E
:1042E000631F39031374C409111413341400854572
:1042F000F14619E41376F50F13858A09EFF09FD282
:10430000EFE08F87130640068146EFC06FB30505C7
:10431000EFE02F8E05C8FD14DDFC01457480631AA3
:1043200049011374340479141334140089458946FF
:10433000C9B7137414060114133414008D45930681
:10434000000245BF7D55D9BF688081448D49154520
:10435000EFF07FF72A8A13055003EFF0DFF62A8982
:104360005545EFF05FF62A8463170A0463080902D3
:104370000946930510030145EFF01FE119C4130628
:104380000002C5450145EFF03FE01305C003850479
:10439000EFE02F81E39D34FB7D5401A86DF181E8AE
:1043A0001F057070A200EF00E07A228564801F056F
:1043B0008870A200CDBF714685450145EFF0DFDC76
:1043C000E30E09FA75B75C459B85B70494411C4917
:1043D0001B86C70493F776001842BB9B07011D8B11
:1043E0006314F7029F075869A000D4C31442D4C7CE
:1043F000544994CB544194C31445637BD700184D62
:1044000094C70145D8CB82801F0546130080828067
:104410001F054913008082809F077069A0009C23BC
:1044200099CF1F075869A0001843B307B500636C04
:10443000F700637AF50063E8B700014582801F0545
:1044400040130080828037050080050582807880D7
:10445000832A45003779A000AA8903248995032A75
:104460008500EFF09FC763F6AA001F054213008086
:1044700074801309899563738A00528483A4490068
:10448000FD14A294EFF0DFC5E36195FE23208900BF
:104490000145F9BFB777A00003C7079759EF5882C6
:1044A0002A8413890797EFF0FFC76808EFF0AFFC85
:1044B00051E10C201030F2492EC632C4EFF0BFC0DB
:1044C000AA84EFF0DFC02246B245AA86A68701473C
:1044D0006399E604EFF0FFBF05468145EFF0BFEEBC
:1044E00031E99F077169A000054798A32285EFF085
:1044F0001FF629E13775A000032685954C4013056A
:104500008595EFF08FFB1DE585472300F9009F0798
:104510007169A0009C23014591CF1F0541130080C4
:1045200011A83E85F10703A847FE63960901EFF045
:104530009FE94DDD5482050761BF01458280888176
:104540002E8AB2852A89B284EFF01FED3DE1EFF0AB
:104550009FBD137B3900AA8A63020B069147B3877C
:1045600067413309694193F9F40F63E7F400914916
:10457000B389694193F9F90F9F075869A000D443A3
:1045800011466C004A8502C6EFF05F812A8411ED66
:104590007C00CE8633866701CE855285EF00707E23
:1045A00011C937050080130445005685EFF0FFB7A9
:1045B0002285848111094E9AB384344193F9C4FF52
:1045C000638109029F075869A000D4434E86D285B3
:1045D0004A85EFF0AFFC2A8469F94E9A4E99B3846C
:1045E00034410144F9D09F075869A000D4431146D3
:1045F0006C004A8502C6EFF06FFA2A84A686700026
:10460000A6855285EF00F0774DD137040080110464
:1046100069BF98812E8AB285AA843289EFF0DFDFE4
:104620002A8471E5B38524012685EFF07FC093FAD3
:1046300034002A8B63880A069147B3875741B384B5
:1046400054419379F90F6367F9009149B38959414E
:1046500093F9F90F9F0B5869A00083A64B001146F0
:104660006C002685EFF08FF32A8409ED7C00CE865E
:104670005286CE8533855701EF00B07001C93704EB
:10468000008011045A85EFF03FC095A083A6CB00AF
:10469000268511466C00EFF02FF92A8491044E9A7A
:1046A000330939419379C9FF71FC638009029F077F
:1046B0005869A000D447D28526854E86EFF0CFF604
:1046C0004E9ACE943309394131E1E30D09FA1F04C2
:1046D0005869A000544011466C002685EFF00FEC9D
:1046E00009C95A8537040080EFF01FBA11042285EA
:1046F0009481CA86528691456800EF00906875F1F2
:10470000544411466C002685EFF00FF22A849DBFB9
:10471000A8802A892E84EFF03FD021E9B3058900D3
:10472000FD7713974501B374F90041CFED8F05670D
:1047300037050080BA970505631999026397F5025A
:104740002685338A9540116BEFF09FAE2A8C014984
:104750008149814A9F0B5869A0007D1B631D0A0493
:1047600001446285EFF05FB22285A48003A70B01AC
:104770001B07F704032907009359E900CE8A6366F3
:104780003A011387F9FF658F01CB850703A78B00DB
:10479000E3EEE7FC6383E702337969011B29391DE6
:1047A0000146CA852685EFF02FEE2A845DF9330A8B
:1047B0005A41D69465B78547D1BF1F04471300807F
:1047C0004DB7E30F99F637050080050579BF3880AE
:1047D0009F077069A0009C2395C7B705400001455D
:1047E000EFF01FA59F075869A0009C4BAA840546BF
:1047F0008C430145EFF04FE92A842685EFF0DFA8CE
:10480000228534801F0440130080DDBF88819F070C
:10481000C070A2005B95A7062621138A7400135A64
:104820003A00636F460703590500B286AE89014618
:10483000B6854E85EF007058B36799009D8B4A840A
:1048400091CB416ACA94A14A7D1A054B634B9400EF
:10485000014539A05286935539004E85EFE06FA887
:10486000848113767400935534001305F100EFE052
:10487000EFA17DF58347F1008DC3B307244133C712
:104880005703B3E75703337747014E971423B3F722
:104890004701B317FB00D58F1CA30504219C7DB7EE
:1048A0007D557DBF1880EFE02FD010806FE0AFB056
:1048B0002181019D8280019D828089C53B72051303
:1048C0006FF0DFF47D55828018809528BB130501B9
:1048D0001305900210806FE08FCC6545E5BF6FD067
:1048E0004FF818819F07881FA2003EC29F0798209B
:1048F000A2003EC648009F07DE48A2003EC4EFD09B
:104900006FE33775A0009F0760950100930505AA26
:10491000BE95130505AAEFD02FE714811880EFE0AC
:104920008F8F1F05B80B0000EFD0BFAC37270040BA
:104930008327071193E747002328F7101480B70750
:104940000040C84B058982802880EFF05FFFBB18CC
:10495000050137346E01930504600145EFF00FEA5D
:104960006145EFF08FF21305046020806FF0AFF324
:1049700037646202930504A00145EFF02FE81305A8
:104980008002EFF08FF0130504A0C5B728803734FC
:10499000004085472322F44A0545EFD09FA58D4767
:1049A0002322F44A3717004483274713B70604002D
:1049B000D58F232AF7122480B7E7004403A7878600
:1049C0001377F7F81367070323A4E78603A7C786BF
:1049D0001377F7F81367070223A6E78603A707876D
:1049E0001377F7F81367070223A8E78603A747871B
:1049F0001377F7F81367070223AAE78603A78787C9
:104A00001377F7F81367070223ACE78603A7C78776
:104A10001377F7F81367070223AEE78682806FD01B
:104A20005F9D6FD01F9818819F077369A0009C231A
:104A3000A307A10081EB894605469305F1000145D6
:104A4000EFD09FDF14819F077369A0009C2389EF3B
:104A500018812AC6EFC08FB5B2452A869306007D1D
:104A6000014510816FD05FDD82809F077369A000D0
:104A70009C232E8699E7AA859306007D01456FD079
:104A8000BFDB82801881894605469305F100014508
:104A9000A3070100EFD07FE10345F10014819F07D8
:104AA0007369A0009C23A9EF9880AA841F053C711C
:104AB000A2002E8A0144EFF01FF90149A54A1D4BBF
:104AC000930B0003A14913D7C4019377F70F138504
:104AD000070363F4EA0013857703920463050A0071
:104AE000EFF07FF411A8E31D09FEE30B64FF6305FB
:104AF0007501EFF05FF305490504E31634FD94807A
:104B000082804880AA842E890144631494007D55D4
:104B100011A80145EFD09FE019E5EFF0BFF62300A3
:104B2000A900014544800504CDB728802A841F05CB
:104B30003471A200EFF03FF181452285EFF03FF69E
:104B40001F05686EA200EFF01FF0130540062080DD
:104B50006FF03FED1880EFF01FEF1F054874A200C3
:104B600010806FF05FEE28802E84EFF0DFED22855D
:104B70008145EFF0DFF21F054874A20020806FF03E
:104B80009FEC28812E8432C6EFF0FFEB8145228511
:104B9000EFF0FFF01F05B471A200EFF0DFEA32463C
:104BA00081453285EFF0BFEF1F054874A2002081D8
:104BB0006FF07FE928829F079424A00023800700DC
:104BC000930790022306F10093073007A307F10033
:104BD0002307F1001C411307A002A306E1003EC811
:104BE0005C21782123040100ED17230AF1009307CB
:104BF000F7FF819FBBFD0702230BE1005C310544F9
:104C00003808FD17A30AF10081463C0010086C002B
:104C100001453ECC22CEEFD05FAF0145EFF06FC033
:104C20009F077269A00080A32482230B0100F9B7BB
:104C300018809F079424A0008823EFD0FFB99F0716
:104C40007269A0002380070014806FD07FE03707CF
:104C500000401C473D8993F7F7F09BA7A7081CC7A6
:104C600082803880B707004080471F054071A2004E
:104C700011803D8893041400A685EFF0DFEE130544
:104C80004006EFD00FF23B03040F268530806FF013
:104C90001FFCEFD0FFD47300501001A028822A849B
:104CA00005469305B1002145A3050100EFF0FFC0C3
:104CB00009C9AA851F057871A200EFF0DFEA7D55CA
:104CC00024828347B10013F7370019C7B18B89E7F6
:104CD0009307E0631CC0EDB751466C00054502C662
:104CE00002C802CA02CC02CEEFF03FBD11C5AA85B0
:104CF0001F059871A200D1B70347510183474101B5
:104D00009BA7E71021677D17F98F1F075830000018
:104D1000E380E7FC9307300675BF18829F07800089
:104D2000A200D05302CE15C2680832C6EFF01FF7BA
:104D300019EDF2453246638AC5001F055471A20081
:104D4000EFF03FE4EFD0DFC901A0014514827D55AB
:104D5000F5BF6FF01FB96FD0CFB02880B707000440
:104D6000F3B747303774A000130744971C4313046C
:104D7000449785071CC3C92238559F074A53A20090
:104D80006305F700552A3C558297B7070004F3A73F
:104D900047301C40FD171CC024802880B70700083E
:104DA000F3B747303774A000130744971C4313042C
:104DB000449785071CC3492278559F074A53A20090
:104DC0006305F700952A7C558297B7070008F3A77B
:104DD00047301C40FD171CC024802880B7070010F6
:104DE000F3B747303774A000130744971C431304EC
:104DF000449785071CC3892238599F074A53A2004C
:104E00006305F700152A3C598297B7070010F3A7EE
:104E100047301C40FD171CC024802880B7070020A5
:104E2000F3B747303774A000130744971C431304AB
:104E3000449785071CC3092278599F074A53A2004B
:104E40006305F700D5287C598297B7070020F3A7A0
:104E500047301C40FD171CC024802880B707004045
:104E6000F3B747303774A000130744971C4313046B
:104E7000449785071CC3C920385D9F074A53A20089
:104E80006305F70055283C5D8297B7070040F3A7FC
:104E900047301C40FD171CC024802880B7070080C5
:104EA000F3B747303774A000130744971C4313042B
:104EB000449785071CC34920785D9F074A53A20089
:104EC0006305F70095287C5D8297B7070080F3A7FC
:104ED00047301C40FD171CC024803880EF10D00ED6
:104EE000B774A000138744971C4385071CC3EF10B9
:104EF000300F7324203489208567FD177D8C0A04C8
:104F0000229518419F07364FA20093844497630669
:104F1000F7001D2022951C418297EF10F00A9C405B
:104F2000FD179CC030806F10B00B7325203485674F
:104F3000FD177D8D828001A01F05BC04A200828028
:104F400039C9388044412A841F05FC71A200A68516
:104F5000EFF04F8DB7070080B107639BF4021F0588
:104F60001072A200EFF00F8C0965210519215C4C2D
:104F70002285C1075CCC8D239F078C69A0009C43D0
:104F800081C7A28526858297014530806FD01FA1F9
:104F900009651105E1BF828028802A841F056C7491
:104FA000A200EFF02F882E201F05A474A200EFF0BE
:104FB0006F871C481F05BC74A200CC4BEFF08F8696
:104FC0001C481F05D474A2008C4BEFF0AF851C4821
:104FD0001F05EC74A2008C47EFF0CF841C481F051E
:104FE0000475A200CC43EFF0EF831C481F051C752D
:104FF000A2008C43EFF00F831C481F053475A200FC
:1050000083A5C708EFF00F821C481F054C75A2004E
:10501000CC4FEFF02F811C481F056475A200CC47D0
:10502000EFF04F801C481F057C75A2008C4FEFE00D
:105030007FFF1C481F059475A20083A58708EFE039
:105040007FFE1C481F05AC75A20083A54708EFE052
:105050007FFD1C481F05C475A20083A50708EFE06B
:105060007FFC1C481F05DC75A200EC47EFE09FFBAE
:105070001C481F05F475A200AC47EFE0BFFA1C48BE
:105080001F050C76A200EC5FEFE0DFF91C481F055E
:105090002476A200AC5FEFE0FFF81C481F053C76C9
:1050A000A200EC5BEFE01FF81C481F055476A2003D
:1050B000AC5BEFE03FF71C481F056C76A200EC5795
:1050C000EFE05FF61C481F058476A200AC57EFE0C6
:1050D0007FF51C481F059C76A200EC53EFE09FF47F
:1050E0001C481F05B476A200AC53EFE0BFF31C4888
:1050F0001F05CC76A200EC43EFE0DFF21C481F0551
:10510000E476A200AC43EFE0FFF11C481F05FC76FB
:10511000A200CC5FEFE01FF11C481F051477A2002E
:105120008C5FEFE03FF01C481F052C77A200CC5BA2
:10513000EFE05FEF1C481F054477A2008C5BEFE0B7
:105140007FEE1C481F055C77A200CC57EFE09FED77
:105150001C481F057477A2008C57EFE0BFEC1C4879
:105160001F058C77A200CC53EFE0DFEB1C481F0536
:10517000A477A2008C53EFE0FFEA1C481F05BC7720
:10518000A200EC4FEFE01FEA1C481F05D477A200F5
:10519000AC4FEFE03FE91C481F05EC77A200EC4B59
:1051A000EFE05FE81C481F050478A200AC4BEFE07D
:1051B0007FE71F051C78A20020806FE0BFE6544106
:1051C000B777A0001387879708CB1385879736A3F7
:1051D0006FF09FDC28802A841F054C74A200EFE04A
:1051E0007FE4228520806FF09FFD28802A841F05A0
:1051F0007C73A200EFE01FE3228520806FF03FFC6C
:1052000028802A841F053073A200EFE0BFE12285C9
:1052100020806FF0DFFA28802A841F055873A200CF
:10522000EFE05FE0228520806FF07FF928802A84FC
:105230001F05C873A200EFE0FFDE228520806FF01B
:105240001FF828802A841F05A873A200EFE09FDDC5
:10525000228520806FF0BFF628802A841F051C74E9
:10526000A200EFE03FDC228520806FF05FF5288010
:105270002A841F05F073A200EFE0DFDA2285208088
:105280006FF0FFF328802A841F050473A200EFE06B
:105290007FD9228520806FF09FF228802A841F0505
:1052A000D872A200EFE01FD8228520806FF03FF176
:1052B00028802A841F05AC72A200EFE0BFD62285A9
:1052C00020806FF0DFEF28802A841F059872A200EB
:1052D000EFE05FD5228520806FF07FEE28802A8462
:1052E0001F052072A200EFE0FFD3228520806FF01F
:1052F0001FED28802A841F054072A200EFE09FD294
:10530000228520806FF0BFEB28802A841F057872E9
:10531000A200EFE03FD1228520806FF05FEA288075
:105320002A841F05E471A200EFE0DFCF22852080F0
:105330006FF0FFE828802A841F056072A200EFE06A
:105340007FCE228520806FF09FE71880EFF0FFBDB1
:10535000AA851F05B871A200EFE0DFCC01A018807C
:10536000EFF0BFBCAA851F055878A200EFE09FCBE5
:1053700001A0188035221080E1A8188101452EC6B1
:105380000D2AB2452E85EFF0DFFE10816FD07FA58C
:105390005884B2862A89AE8432842E86AA851F0557
:1053A0008078A200EFE01FC8EFC03FCF9F07906951
:1053B000A0009823AA8921E3054798A3230021038D
:1053C00026D2EFC0BFF52AD4081022D6CD28130666
:1053D00000028145081002C802CA02CC02CEEFB01A
:1053E0006FE622DAF32710343EDC8A8768003EC677
:1053F00009220810312A9F079469A0009C4391C399
:10540000829789658D050945EFF03FF74E85EFC01E
:105410005FC954849F079824A00003A30700630575
:1054200003001386B0FF028318818547A307F100AC
:105430008347F100819FEDFF14819306C00F1F0683
:10544000DC24A0009305C00F1F059869A00015AAD1
:105450003727A0009307C74D83D7870D896613862A
:1054600006041307C74D6389C702636CF6008DC736
:1054700085066383D7029F07AFBEADDE2324F70EF8
:105480008280A16685066389D7009F06F0F0000040
:105490006384D7009166E9BF9F07ADDEADDEF9BF3B
:1054A0009F07DC24A000238D070C239CA70C6FF022
:1054B000DFF89F07DC24A000238DA70C82801880D2
:1054C0002A861F05DC24A000C146C1451305450AF4
:1054D0004D2810806FF07FF618802A869306000909
:1054E000930500091F05DC24A000612810806FF0DF
:1054F000DFF411CD18802A861F05DC24A000D146D8
:10550000D14513050509B52810806FF01FF382807F
:1055100058499F07DC24A00023A6E708184DD8CBE4
:105520006FF0BFF1635BB004AA87594829C918809E
:1055300032872E8601EB8145EFB0CFD0130860098A
:105540004285148063F8D5008145EFB0AFCF1308D2
:10555000200AFDB76376A700B305D7006368B500DE
:105560000148E3FFE7FCBE96E37CD7FC81453E851E
:10557000EFB04FCD1308600BE1B71308200242854E
:10558000828063E3D5020DC105C263CF050089CED9
:105590006376A600B307D600637AF5006376C5008C
:1055A000B307D5006374F6006FF0DFF71880B2859B
:1055B0003686EFB00FD401451480AE8763C3050271
:1055C00028802A8411C9B285368663E0D702EFB0FD
:1055D0006FC701473A85248013072002E5DD59474C
:1055E000D5BF130720023A85828013072002FDD31E
:1055F0003E86EFB02FC51307200AE9BF3287634606
:10560000E0009C423E9690C282801C41FD171CC166
:1056100063D50700FD579CC282805C417D178CA337
:105620005C4185075CC1E1BFD89FB78AA200938720
:10563000CA8D1D713ECC378BA200A947AA8C32843B
:1056400002CE02D002D23ED402D602D802DA02DC66
:1056500002DE82C082C22314010402CA0147938A77
:10566000CA8D9F0BF078A200130B8B8A1F0C9C2411
:10567000A0001F09C878A2009C2181C7D24663D927
:10568000060019C33B163707524513010125D48084
:10569000B386FB009422138A1500DBD6DB08BA968A
:1056A00083C906103BFE29089B063B05944282866F
:1056B00003A70C007D1723A0EC006340070203A79B
:1056C0004C001CA383A74C00850723A2FC00D247F3
:1056D00085073ECAD2854E8745B7FD57DDBFFD57CA
:1056E00082C202D002D602D83EDA02D202DC02DE48
:1056F000D5B71307B0026389E702636AF7003B88F6
:105700000720BB94F723B25793E7070821A8BB886B
:10571000072DBB90F730B25793E7870021A0B2570F
:1057200093E727003ED67DB7B25793E71700DDBF5A
:10573000B25793E74700FDB7BB93072A1440110403
:1057400036D8854636DCE25695E6BB01070302D81B
:10575000C2561F0714AE47016354D7007D5535B7B5
:1057600013972600938707FD3697819F9B87E70253
:105770003ED88DB7C25763D907003257B307F04000
:105780003ED8136747003AD642579F07C8CCCC0C87
:10579000E3D2E7F4E1B702DA35BFBB93072A18403A
:1057A00011043ADA05473ADEF256525785E29F066F
:1057B00014AE4701E3C4E6FA93162700938707FD6A
:1057C0003697819F9B87E7023EDA29B7635407002B
:1057D000FD573EDA525755BF1307A0066387E70807
:1057E0006360F7041307C0046386E704636EF70081
:1057F0003B99B7499C31BB9F1736BC213B9D273451
:10580000138A3500216791A0BB8F075A3B92B76876
:10581000943132576397F60A138A2500896781A06D
:10582000130740076386E704636BF7003B89076C47
:105830003B99A771B2571F070014000001A8BB8253
:105840002777BB94A77A37070200B257D98FD9BD03
:10585000943132576397F600138A250085675D8F70
:1058600019A0136707013AD6B5B537070400F1BF91
:105870004167E1BF3B960733BC21BB9D0732B2575E
:1058800061777D17138A3500F98F69BD1387C7F9D2
:105890009376F70F3BF506121F07210802003357D6
:1058A000D700058BE31807E293F7F70D3B8A87587B
:1058B00083A70C00FD1723A0FC0063DC0700FD5745
:1058C0002DA01367070245B7B2571F070008000055
:1058D000B5BF83A74C001307900498A383A74C007F
:1058E000850723A2FC00D24785073ECA8149DDB364
:1058F0003BF2476813075006E3F2E7E6130730056B
:105900006389E71A636FF70813073004638FE7149E
:1059100063E6E7009387B7FB3BE197038257425664
:105920001D8E96471D8EB257B2C0B18B89EB63585E
:10593000C0005408930500026685EFF03FCC964600
:10594000635ED0003C083386F60003A70C007D1789
:1059500023A0EC00635E074AFD573ECAB257B18BE5
:10596000BB95070806466358C0005408930500031A
:105970006685EFF0BFC89257638C074AFD573ECA51
:10598000D247E3C907D4B257918BE38507D40646C3
:10599000E352C0D45408930500026685EFF01FC699
:1059A00015BB13073006638CE70C6361F706BB9BDE
:1059B000D75841473AD44ACC3257BB8557583B95C4
:1059C00057709F07904000005D8F8947BEC2E17706
:1059D00093C7078302DA3AD62314F104B257256736
:1059E0007D8F630A07161D04937784FF1384870055
:1059F000844303AD470045A213070007E38BE7FA92
:105A00006363F7023B8207693B95C76F9306900675
:105A100032576386D70063EDF610BB90F7641367C7
:105A200007043AD611AABB89F7753B82E778BB9B7E
:105A3000B773B25714409304440013F777FF3AD674
:105A40001F0710080000F98F36CE5257D9EB89E6B0
:105A50009F07A424A0003ECE7245BB1B17FFEFB0EA
:105A6000EFB4635B0506014585A8B2570567930649
:105A70000783FD8E89E613070780D98F3ED6B2577C
:105A8000054632D093F577FF2ED69F05100800000B
:105A9000ED8F13074400144099C7FC00B6C63ECEF4
:105AA00032D23A84A5BDFC002306D1043ECE02D2F8
:105AB000CDBFB257056793060783FD8EBDFA130766
:105AC0000780D98F3ED6B5B72A97AA876384E700A7
:105AD000942391E63385A7402AD0268481B5850793
:105AE000F5B785473ED289E69F07AC24A0003ECE9D
:105AF000F24681476384E700904201EA37070020BD
:105B000063E3E70081473ED0C9BF85079106DDB753
:105B100056CC13770708E30B07EE130700032304A3
:105B2000E1046247182BA304E1040947BAC2F9BD96
:105B30003B84076F3B9AA775A9473ED44ACC79BDF1
:105B4000A1473ED44ACC93770708E38907E8136757
:105B500007203AD661B593F6070113F7070489C603
:105B6000044011044DCB65A09396270163D9060824
:105B70001440014D110493F4F60F11CFE206E186B3
:105B800063DB060093C4F4FF819C850493E7071050
:105B900013DDF4413ED6B257A68D6A8793F607040B
:105BA00089CE635C0D00B30D9040B336B00133076E
:105BB000A04193E70710158F3ED6B256B797040061
:105BC000F58F91E301471308C12442CEB3E7ED00FE
:105BD000C1E382C202D052578546634F0700B257D5
:105BE0009396170163C40600DD9B3ED69307002001
:105BF00063D3E7003EDAD2561306000369AA93F690
:105C0000070281CE0440110411C7C204C18413DD10
:105C1000F44151B7A19C014DBDBF9396F70063D7E6
:105C200006000440110413DDF441B5B79396E70074
:105C300063DB060004409307440013DDF44111E3E5
:105C4000014D3E8489BF9396D700E3DB06F061BB2C
:105C5000A25749EFBB91170AA946254672479307F9
:105C6000F7FF3ECEB3F7DD02CA979C23A30FF7FEE2
:105C700093D72D009B87B7439B87F7489B87F750A7
:105C80009B87F7608D83139527003E951B95AD028A
:105C9000637CA6048507BE8DD1B7BB8907103B90F6
:105CA000170872479307F7FF3ECE93F77D00CA9718
:105CB0009C2393DD3D00A30FF7FEE3940DFE05A0AA
:105CC000724793F6FD0093DD4D009307F7FF3ECE3C
:105CD000E247B6979C23A30FF7FEE3930DFEF2472E
:105CE0003308F84042D0C5BDDDF7D5BFBB8C070AED
:105CF0003B8B1710BB9AF708F2469387F6FF3ECE10
:105D000093F77D00CA979C2393DD3D009BADED3A50
:105D10000D83A38FF6FEB3E7ED00F9FFC9B7F24795
:105D200029466E859386F7FF36CEBA85814642C6F0
:105D30003EC43AC2EFA0DF904A9514211247A24711
:105D40006E85BA85A38FD7FE29468146EFA01F8FA7
:105D50002E87C98DAA8D3248F9F151B7F24613F654
:105D6000FD0093DD4D009387F6FF3ECEE2479BADED
:105D7000ED381183B2979C23A38FF6FEB3E7ED00B5
:105D8000F1FFB1BFF2471387F7FF3ACEA38FC7FEEB
:105D9000825785073ED00257E346D7FEB25793F7A6
:105DA000072085C3F24701C798233B0607301387B6
:105DB000F7FF3ACE13070003A38FE7FE825785074C
:105DC0003ED0B25713F7070411CB13F707100DC7D6
:105DD0001307D0022304E1040547BAC2B3E4A401C7
:105DE000E39E04B213971701E35A07B21547DD9BF0
:105DF00062CE3AD03ED61DB613F7170001C713077F
:105E0000B002C9BF13F7270071DB13070002D9B72F
:105E100003A74C0083C5070385070CA303A74C0009
:105E2000050723A2EC00E312F6B2D247B69735B6C7
:105E3000F245825403A70C00AE87B38695006349F0
:105E40009706BBDD040CAE8719A803A74C0094236A
:105E5000850714A303A74C00050723A2EC00338792
