:0200000400A258
:108300006F004000930200007390023A9302000055
:108310007390123A930200007390223A9302000085
:108320007390323A930200007390927D97D2FDFFD2
:108330009382C27D13030500032E030023A0C20114
:10834000979200009382C22C938212007390523055
:10835000735000307350403097C100009381C14B7F
:1083600017D1FDFF1301019A97B2FDFF938282D9C5
:1083700017D3FDFF13030319638C6200B7B3BEEF7D
:108380009383E3DD23A0720093824200E3CC62FE7C
:108390009300000013020000130400009304000087
:1083A000130500009305000013060000930600006B
:1083B0001307000093070000130800009308000053
:1083C0001309000093090000130A0000930A00003B
:1083D000130B0000930B0000130C0000930C000023
:1083E000130D0000930D0000130E0000930E00000B
:1083F000130F0000930F000097D2FDFF93828210AD
:1084000017D3FDFF13038370638A62009303000098
:1084100023A0720093824200E3CC62FE6F00D0255D
:108420001015A30048D3A20048D3A20048D3A2004D
:1084300048D3A20048D3A20048D3A20048D3A20048
:1084400048D3A20048D3A20048D3A20048D3A20038
:108450005CD3A20048D3A20048D3A20048D3A20014
:1084600048D3A20048D3A20048D3A20048D3A20018
:1084700048D3A20048D3A20048D3A20048D3A20008
:1084800048D3A20048D3A20024CFA20024CFA20048
:1084900024CFA20024CFA20024CFA20024CFA20088
:1084A00024CFA20024CFA20024CFA20024CFA20078
:1084B00024CFA20024CFA20024CFA20024CFA20068
:1084C00024CFA20024CFA20024CFA20024CFA20058
:1084D00024CFA20024CFA20024CFA20024CFA20048
:1084E00024CFA20024CFA20024CFA20024CFA20038
:1084F00024CFA20024CFA20024CFA20024CFA20028
:1085000024CFA20024CFA20024CFA20024CFA20017
:1085100024CFA20024CFA20024CFA20024CFA20007
:1085200024CFA20024CFA20024CFA20024CFA200F7
:1085300024CFA20024CFA20024CFA20024CFA200E7
:0885400024CFA20024CFA20009
:108550008280110422C0ED3FD24273901234825DBA
:10856000125DA25C325CC25B525BE25A725A86496F
:108570001649A6443644C64F564FE64E764E8658A8
:108580001658A6573657C6565656E65576558A4358
:108590001A43AA42BA40496173002030014739A00A
:1085A0001881380021202245B2451481B6883288CE
:1085B000AA872E8EDDEE63F1C512C166636AD61CF2
:1085C000B70600016365D63A13538601E14897C6A2
:1085D000000083A6A6A39A96942213030002B698DD
:1085E00033031341630C0300B3956500B3581501C1
:1085F0003318660033EEB800B3176500935E0801C8
:10860000335FDE0313160801418293D60701B37569
:10861000DE03B30FE6039BA6B62063FAF601C2960B
:108620009305FFFF63E4060163E5F6372E8FB385FC
:10863000F64133D5D50393960701C182B3F5D5032F
:108640003306A6029BA7B62063FAC700C29793061B
:10865000F5FF63E4070163EBC7323685918F1B2575
:10866000E521814511C7B3D767001CC3232207004A
:10867000828063F9D500630F071208C34CC301451C
:1086800081458280C16763EDF60EB707000163EA9A
:10869000F62C93D88601614897C7000083A70797F7
:1086A000C69703C30700930E00024293B38E6E4039
:1086B00063950E1863E4B6006363C52E3306C540A8
:1086C0003335C500958D338EA540054581454DD385
:1086D00010C32322C701828001E6854633D8C60233
:1086E000C1666360D80CB70600016368D8261356CC
:1086F0008801E14897C6000083A64691B296902271
:108700001303000246963303C3406318030A931E03
:108710000801B3860541135F080193DE0E0185450C
:1087200093D8070133DEE603B3F6E6033306DE0330
:108730009BA6D82063FAC600C2961305FEFF63E429
:10874000060163EBC6242A8E3386C6403355E60302
:1087500093960701C1823376E603B308D5039BA73E
:10876000C62063FA1701C2979306F5FF63E4070179
:1087700063EB17213685B38717411B25C521DDB56E
:108780009307F00F63F3D71E93D88600214829B7CB
:1087900032839306F00FE3FCC6E213538600A14830
:1087A0003DB542869306F00FE3F606F513568800B2
:1087B000A14889B781450145828033186800B3D844
:1087C000C500135F0801B3DFE803931E0801B395EA
:1087D00065003356C50093DE0E014D8E135E060113
:1087E000B3176500B3F8E803B385FE031B251E210C
:1087F000637BB50042959386FFFF6364051963723E
:10880000B518F91F42950D8DB358E503219E3375B8
:10881000E503B3861E039B25A62063FBD500C29506
:108820001386F8FF63EB051563F9D514F918C295A3
:10883000B386D5409BA5F821E5B533586600B396BD
:10884000D601B366D800B3D7650013DE0601B3DFE7
:10885000C7039398060193D8080133586500331F66
:10886000D501B395D501B365B80013D8050133160A
:10887000D601B3F7C7033385F8039B27F82063FBC2
:10888000A700B6971388FFFF63EBD70E63F9A70E17
:10889000F91FB697898F33D5C703A19DB3F7C703D7
:1088A000B388A8029BA5F52063FB1501B695930735
:1088B000F5FF63E2D50C63F0150D7915B695C1632C
:1088C0001B25F5219387F3FF3378F500135E05012F
:1088D000F18F935F0601B302FE02B3881541B30521
:1088E000F8033308F80296959B850561330EFE0365
:1088F00063F355001E9EC167FD17B3FFF500B37704
:10890000F8001B08BE609B87F72163ED08036389AD
:1089100008038145E30E07D4B307FF40333FFF0050
:10892000B3880841B388E84133936800B3D7D701CF
:10893000B367F300B3D8D8011CC323221701828088
:10894000E379FFFC3386C740B3B7C7003308D8408C
:108950003308F8407D15B2876DBF13560801C14832
:1089600051BB93D80601414805BB014835B31353A9
:108970000601C148A9B93E8599B7B28855BDC28FD5
:1089800011BFB68F49B57915C297F5B37915C2975E
:10899000F1B1791FC29661B9791EC29675B32A8664
:1089A00001452DB359CA93F7F50F1CA13307C50034
:1089B000A30FF7FEBB6126031CB13CA1230FF7FEFA
:1089C000A30EF7FEBB6D16073CB1230EF7FEA146C2
:1089D00063F5C606B307A0408D8B3307F5001D8EE7
:1089E00093F5F50F9F0701010101B385F502719A17
:1089F000B307C7000CC323AEB7FE63F0C6044CC375
:108A00000CC723AAB7FE23ACB7FE3B6C06194CC7B4
:108A10000CCB4CCB0CCF23A2B7FE23A4B7FE23A6CE
:108A2000B7FE23A8B7FE93774700E107BA97FD4644
:108A300032973306F74063E3C60082808CC3CCC311
:108A40008CC7CCC78CCBCCCB8CCFCCCF9387070239
:108A5000CDB7AA8713F7350019C36319061613F8A3
:108A600037003D47630E0818BB6A162094219841D1
:108A7000BB0778028D486305182394A394317516BB
:108A80008D0594B383C6F5FF8D07414EA38FD7FEA6
:108A900003A3150083A855004116131883001B2754
:108AA000E87003A8950098C3939688001317880070
:108AB0001B27177198C703A7D5009BA66670D4C360
:108AC000931687009BA60671D4C7C105C107E36151
:108AD000CEFC1377060151C39821C107C105238835
:108AE000E7FE03C715FFA388E7FE03C725FF238919
:108AF000E7FE03C735FFA389E7FE03C745FF238AC7
:108B0000E7FE03C755FFA38AE7FE03C765FF238B74
:108B1000E7FE03C775FFA38BE7FE03C785FF238C22
:108B2000E7FE03C795FFA38CE7FE03C7A5FF238DD0
:108B3000E7FE03C7B5FFA38DE7FE03C7C5FF238E7E
:108B4000E7FE03C7D5FFA38EE7FE03C7E5FF238F2C
:108B5000E7FE03C7F5FFA38FE7FE1377860031C357
:108B60009821A107A105238CE7FE03C795FFA38CDD
:108B7000E7FE03C7A5FF238DE7FE03C7B5FFA38D5F
:108B8000E7FE03C7C5FF238EE7FE03C7D5FFA38E0D
:108B9000E7FE03C7E5FF238FE7FE03C7F5FFA38FBB
:108BA000E7FE1377460059C3982191079105238E5C
:108BB000E7FE03C7D5FFA38EE7FE03C7E5FF238FBC
:108BC000E7FE03C7F5FFA38FE7FE8DA0850503C76A
:108BD000F5FF85077D16A38FE7FEADBD9441C10764
:108BE000C10523A8D7FE83A645FF411623AAD7FEB9
:108BF00083A685FF23ACD7FE83A6C5FF23AED7FE91
:108C0000E36EC7FC1377860011CB9841A107A1053D
:108C100023ACE7FE03A7C5FF23AEE7FE13774600AC
:108C200011C798419107910523AEE7FE13772600FF
:108C300011CB982189078905238FE7FE03C7F5FF2C
:108C4000A38FE7FE058A19C2982198A3828094A376
:108C500094317916890594B3454E890703A32500FD
:108C600083A865004116131803011B27E86003A8B9
:108C7000A50098C393960801131708011B271761D5
:108C800098C703A7E5009BA66660D4C393160701A7
:108C90009BA60661D4C7C105C107E361CEFC15BD23
:108CA00094A385057D168507494E03A3350083A847
:108CB00075004116131883011B27E85003A8B5005F
:108CC00098C393968801131788011B27175198C7DB
:108CD00003A7F5009BA66650D4C3931687019BA6F5
:108CE0000651D4C7C105C107E361CEFCDDB32A96A6
:108CF000630CC5001C2198216385E7003385E7409C
:108D0000828005058505EDB701458280AA8713F7A6
:108D100037001DE39F05FFFEFEFE1F06808080805A
:108D200094433387B60093C6F6FF758F718F01CFDA
:108D3000982309C78507EDBF982301E73385A7402E
:108D400082808507E9B79107E1BF2A882E87B2871D
:108D5000630FB502F956B306D602B388A540B388AF
:108D6000C84063E31601F5B1B3C6A5008D8A6378E8
:108D7000B504A1C6AA86B697638AF600050703461E
:108D8000F7FF8506A38FC6FEC5BF81E742873A85F8
:108D9000828005070346F7FF8506FD17A38FC6FEF1
:108DA00013F636007DF20D46E377F6FC0C43F1171F
:108DB000910623AEB6FE1107C5BFAA86D5B781EED0
:108DC0002A96B386F50093753600B387E64089EDA1
:108DD0008D4663E3F602DDDBFD17B306F700902254
:108DE000B306F80090A2C5BF7D16E301D7FA83C78A
:108DF000F6FFFD161CA2C1BFF1173306F7000C42A7
:108E00003306F8000CC2F1B71880EF305070B72766
:108E1000004011472398E71001A001A018802A867E
:108E2000D146D1451F050055A000EF70104701C580
:108E30003705008011051480188002951080F1BF5D
:108E4000370700401C473D89C19BC98F1CC78280E2
:108E5000B707E0FF3E956F309023B2872E86BE8520
:108E60006F301013B2872E86BE856F3030051F0518
:108E7000501EA3006F30E079588B02D602D802DA78
:108E8000373600408327862393D6370013D7270031
:108E9000858A058B638AE60013F7470011E7F99B83
:108EA00093E72700232CF62237370040832787409B
:108EB00093E787032324F740EF30103D1D45EF1063
:108EC00030120145EF10F0169F0700C201003EDC92
:108ED000930780103EDE9F0702010400BEC0EF1022
:108EE000403F31462C180808AD3681450808EF3060
:108EF0001059EF30D0461F055C1EA300EF303052F2
:108F0000EF401056EF30601FEF30B0311F05781E74
:108F1000A300EF30D0509F076E8EA200BEC29F0705
:108F2000648EA200BEC49F075A8EA200BEC6C800AF
:108F30009F07508EA200BEC882CACD350D3F2AC6FB
:108F40006300051EEF307042B2451F05941EA3005A
:108F5000EF30104EEF30B040EF305037EF30D039B7
:108F6000EF30004C01CD2AC6EF303040B2451F052E
:108F7000C01EA300EF30D04BEF30703EB73700403B
:108F800083A7872393F6270013F787006380061AC9
:108F9000858B9305300391C3E1451306300311C35C
:108FA00061461F05D41EA300EF30504AEF30D02594
:108FB000EF103016EF40C0672C181305100202D4D2
:108FC000EF40F05109E583478103638B0716930552
:108FD00050101F05081FA300EF3090456C101305BB
:108FE0000002EF40D04F19C9EF3030381F05BC1FC9
:108FF000A300EF30D042EF30903639354254B707F6
:10900000200093890710A29982C282C482C682C8B6
:10901000525903A78904B304F400938707303E94A0
:109020009F07E196783C2699631AF71A1F05D81F07
:10903000A300EF30D03E9F058080A2002686194510
:10904000D521AA85630A05241F056020A300EF30FF
:10905000303EEF3090311F05B421A300EF30303C9B
:10906000EF30F02FB707004088473D898D47637F79
:10907000F5220505F133493B0145EF301048014524
:10908000C13371468145C800313AC800EF40B0187D
:109090000DC9A6471F0733F37C4B94436393E60245
:1090A000664705E3464793D6C400B183BA94378731
:1090B00000442320D780B18023209782958F2320DE
:1090C000F784B7070040D85323A207029F075A5AD4
:1090D0005A5A6312F704EF305029EF10D0001F05E1
:1090E0002421A300EF30B0332C18094502DC02DE46
:1090F00082C082C282C482C6EF40703EAA84CC0085
:109100000545EF40D03D458D630305201F054021F7
:10911000A300EF30D030EF10007D2285313B548B1F
:109120001F05AC1EA300EF30902F3DB59305300313
:1091300011C3E1451F05F01EA300EF30702FBDB530
:109140002810EF40203422559305C006D000EF4090
:10915000003DAA8509C51F05281FA300B5BD1647F8
:109160009F07AA55AA55631AF7003A579F0755AAB1
:1091700055AA6314F700AA5799E71F05401FA300DB
:10918000EF30F029A1BDEF30501E1F05581FA3007E
:10919000EF30F028EF50102BB7370080938677041C
:1091A0003727A3006304D502938707046300F50201
:1091B00011CD130587F6EF3090261F05841FA300FD
:1091C000EF30F025EF30B019813109BD130587F676
:1091D000EF30F0241F05A01FA300DDB7B367240103
:1091E00093F7F70F89CFEF3050184A86A6851F05F1
:1091F000F01FA300EF309025EF30701631311F05BE
:109200000C20A300EF30B0219387C904BEC4F147FE
:10921000BEC641468547CC0008082308F104EFF09C
:109220005F830808EF00101F09CD2AC6EF30F01346
:10923000B2451F052420A300EF30901FEF303012FD
:10924000E13641479386C9064A86A2850145EF006B
:10925000B02209CD2AC6EF305011B2451F05382083
:10926000A300EF30F01CEF30900F793E85463706B3
:10927000A000CA850545EF009024E30E05DA2AC652
:10928000EF30B00EB2451F054C20A300EF30501A4E
:10929000EF30F00C953E45B3A28526859521AA8531
:1092A000E30C05DC1F058020A30055B39947E37448
:1092B000F5DC05057136C80082C2EF40B045AA85CD
:1092C00019E1164519E51F05A020A300EF3050163F
:1092D0005DB3EF500038AA8509C51F05BC20A30067
:1092E000F5B7EF502044AA8509C51F05D420A30077
:1092F000F1BFEF50804AAA8509C51F05F420A300DD
:10930000F1B71F051021A300EF307011ADB3B645C2
:109310002645EF30C057AA8511C51F056421A3005B
:10932000EF301011F25706462645B7052000BE95CE
:10933000EF300046AA8511C51F058421A300EF3038
:10934000300F1F05A421A300EF30700DEF30300166
:10935000D9B3B726A3001387C62681479386C626AE
:109360003948834807006394A80283481700639034
:10937000B802DB97F60CDC4301456380C702188016
:109380001F05EC21A300EF3090097D55148085075F
:109390003107E39807FD8147C5B782801881FD57E3
:1093A00005469305F1001D45A307F100EF30E06489
:1093B00001C91F053022A300EF3070067D551481CE
:1093C0008347F1000145E5FF370500800905C5BF6A
:1093D00038812A84AE8411466C00194502C6EF30EC
:1093E000C06101C91F05FC21A300EF3050037D556A
:1093F0003481B24701453D8C658C7DD81F051C2208
:10940000A300E5B7488413090102AA8436842E8597
:1094100093060002B2854A8602C402C602C802C090
:1094200002C202CA02CC02CEEF00F06109C91F05D8
:109430001423A300EF30A07EFD573E85448493079C
:10944000000226C422CA93840402130404025008B2
:109450008A8528003EC83EC03ECE26C64AC222CCDF
:10946000EF00F05D814771D91F054423A300D9B7F0
:109470003881AA8441468A85054502C002C202C4D9
:1094800002C6EF30805709C91F05B821A300EF308D
:1094900000797D54228534812A844146A6850A8537
:1094A000EFF0FF8465D91F05D821A300CDB738811F
:1094B0003727A300B2849306C7262E8402C68147AD
:1094C0001307C72639468C226394A502DB17F70CD5
:1094D00088276C001146EF304052AA87B37594007C
:1094E00015C11F05FC21A300EF3060737D55348149
:1094F0008507B106E399C7FC0145E1BF1387F5FF76
:10950000F98D8507E5FD3246658E01EA0145E3F0F8
:10951000B7FE1F055422A300C1BF1307F6FF798EC3
:109520008505E5B748806309061C930700F06305CD
:10953000F61C32842E89AA849535B70700808907E6
:109540006315F5021F05FC23A300EF30406DB9350C
:10955000B70700808907631EF50E1F056C25A30061
:10956000EF30E06B0144228544803B1805FF1F0566
:109570002C24A300EF30A06A1F04C01500801F0533
:109580005025A300EF30A069F9BF91C49387E4FF91
:10959000819FBBF807029F071455A0009C43BB8521
:1095A00007051F055824A300EF3060671F04C1158D
:1095B0000080F1B7104081452685613B11C91F0528
:1095C0008824A300EF30A0651F04C215008045BFAA
:1095D0009306040C1306000CA2854A85253511C993
:1095E0001F05B024A300EF3080631F04C315008063
:1095F00079B799CC10544C502685553D11C91F059B
:10960000DC24A300EF30A0611F04C415008085BFD7
:109610000C584854753B11C91F050825A300EF30AD
:1096200000601F04C515008099BF58589F0712C8D5
:10963000132AE31EF7F0130584031D3DE30905F02B
:109640001F052C25A300EF30805D1F04C615008088
:109650003DB73B1705FF1F059C25A300EF30205C9D
:109660001F04C01500801F056C26A30021BF032620
:1096700004108545268513090410E13911C91F0519
:10968000C825A300EF30A0591F04C2150080E1BF18
:109690009306042813060018CA85130504089D3391
:1096A00011C91F05F025A300EF3060571F04C31533
:1096B000008055BF8DC003264901832509012685F9
:1096C000FD3311C91F051C26A300EF3040551F04B0
:1096D000C415008049BF8325C90103258901CD39FF
:1096E0002A84E30205E81F054826A300EF30205333
:1096F0001F04C515008085BF1F04CA150080A5B5CD
:109700004882930700F06307F506ADC5AE842A844E
:10971000130600028145130905100A85EFF08FA892
:1097200083254412930600020A862685EF00B03195
:1097300005C11F058023A300EF30604E1F04C7152D
:1097400000801F05DC23A300EF30604D228544829A
:1097500093058412130600020A85EFF04FD90144E5
:1097600075D51F05B023A300EF30604B1F04C8154B
:109770000080C1BF1F04CA150080C9BF3880F32410
:109780000030F37704303754A000930744529E23EF
:1097900013044452A19F89EB9F071C55A0009C43D2
:1097A00081C78685014582979F071855A0009C4375
:1097B00089C786851220014582971E20A19F89EBCB
:1097C0008D8093C4140085889F072055A00084C312
:1097D0001E208507A19F1EA01E20A19F81EB93053F
:1097E00030061305100330806F4000360F00F00F75
:1097F0000F00F00F348038803754A0009307445294
:109800009E23A19F81EB9305F00613051003308082
:109810006F408033130444521E208684FD17A19F9D
:109820001EA09F071855A0009C4389C7868512205B
:10983000054582971E20A19F85E79F071C55A00024
:109840009C4381C7A685054582979F072055A000A8
:109850009C4399E3F36704300F00F00F0F00F00F03
:10986000348018802A86B146B1451F052855A000CE
:10987000EF70A0220145148038802E84E146014615
:10988000E145AA84EF702029930784FF1F07345510
:10989000A0001385B401F19B71991CCBE117898F4E
:1098A00048C7A19F5EA11CC79D67938747077EA1FC
:1098B000232005003480C9B7B756A00093874653CC
:1098C000DC479386465399E30145828075DDF22398
:1098D0001D6713084707630606011307C7C6E3158C
:1098E000E6FE0D0571991D67219D81481306470706
:1098F000130885001303C7C603DE6700DA2363126B
:10990000CE046375E802098F3E9861172312E800C0
:109910002313C8001D671307C7C68CC3FAA3984258
:10992000CAA33A9588C2138587008280636BA7001B
:109930001D661306C6C68CC3F2A39042329798C226
:10994000DDB72107BA97984A63EFE700E39E08F670
:10995000D8465E2303AE0601A107B308F70063EA09
:10996000C801DC468548FA23E30867F8E306C7F830
:10997000A1BF035E6700631BCE0003DE68006317B0
:10998000CE0083D84800C6975EA3BA884687D1B771
:109990001880868510800DB70DC50357E5FF9F071A
:1099A0006C6C0000631FF7009D6793874707231FB8
:1099B000F5FE1F073455A0008356C5FF5C43B697DC
:1099C0005CC301458280C9BF18804D3B01451480AE
:1099D0001DB568812A84AE84EF207008EF108023C3
:1099E000AA890149054A631699000F00F00F014545
:1099F00064815840543403280400832884005C2484
:109A00006C24683413562700638746017D171B07B3
:109A100017431356270013F777008347D1008D8A29
:109A20002306A10093F7070ED98F9BA7D70693F7BC
:109A3000F7079BA7B70E42C232C4A306F10083A763
:109A4000090048004104829745F5050969BF788EF1
:109A50002A89AE8AB28481451306000408103AC6EA
:109A6000368A3E84EFE01FF4130600088145881013
:109A7000EFE05FF302CE324763940A007D55748EA7
:109A8000E30E0AFEB7070001E3FAF4FE3B1CF720E1
:109A90009F07009116026309F90C1F068C26A3008C
:109AA000CA852285EF00A07779F913F9F403B38909
:109AB0002441639F090A93060008014693050008A4
:109AC0008810EF704005CA8633863A019305000876
:109AD0008810EF60907C5DF19C11CA97130700F825
:109AE0002380E7F8930900043B62093893090008D2
:109AF000139734001396B4019F0700FF00009BC723
:109B0000E7501B26E6705D8EB707FF009BC49716D3
:109B1000458E1385C9FF9C1032CE91467008914541
:109B20003E95EF60907739F995464E868C102285E8
:109B3000EF00606F29F581452285EF00406F21F12C
:109B4000130600040C102285EF00E06E0DF9930659
:109B500000021010930500025285EF601074333537
:109B6000A0003305A04021BF1F06AC26A3000DBFF7
:109B700095464E86D68522857D25E31205F08145E2
:109B800022857525E31D05EE014681452285652563
:109B9000E30305F2EDB548823284AA8439462E8962
:109BA000130521018145EFE0FFDF93070002230841
:109BB000F10081458547480022C6A308F10023092A
:109BC000F100230BF100230CF100F9242A840DEDA0
:109BD0002800912E2A841DE91246224581454D2EEA
:109BE0002A840DE122456C00A1212A8401E9224545
:109BF000CA8555212A8419E192479CC01246224504
:109C00008145C52E2245992E228544828840C5244F
:109C1000E5BFF1AC388239468145AA84130521019C
:109C2000EFE05FD89F070D0000033EC693070002D8
:109C30002308F10028008547A308F100230BF10059
:109C4000230CF100CD242A8415E5224501468945DF
:109C500081262A8411ED22456C00D92E2A8409E53B
:109C60002245A6850D292A8422450146894551268B
:109C70002245ED242285348248832E843289AA84A9
:109C800061468145280836C63AC4EFE0BFD189470E
:109C9000B2463ED49307101022C84ACA22CE2316D9
:109CA000F1027D5581CE22473B1507104146B6850E
:109CB0000145712901E50C0826855521448325A31A
:109CC000688103480103BB1846103707620163042B
:109CD0000800370762111375F51F137707E0498FE6
:109CE000B744104446893E8A2E8423A8E4100F000E
:109CF000F00F23A204100F00F00F9F09AC55A00035
:109D000003A709001F054C55A00016073306E50000
:109D10000C4241072322160193E5350093F5F5DF48
:109D20000CC214C623260600C1462286C1453A95B8
:109D3000EF60B05603A709009F068C55A0009B86D4
:109D4000E6080507058B23A0E90023A2260123A42A
:109D5000460123A60600B7D610449C5A1387170065
:109D6000058B93F707F0D98F9CDA0F00F00F83A7CC
:109D7000041313871700058B93F707F0D98F23A8D7
:109D8000F4120F00F00F9F041027000037C9104491
:109D9000C1798327090013F72700B3F73701D98F5B
:109DA0000DCF2320F9000F00F00FB797104403A741
:109DB0000708C1460A863AC003A74708C14522855D
:109DC0003AC203A787083AC483A7C7083EC6EF6014
:109DD000D04C01CD1305000409A80545FD146D23E1
:109DE000CDF81305400B11A07D556481B7071044D1
:109DF000414798D30F00F00FB74710441F074C5549
:109E0000A00023A2E7120F00F00F894623A6D71265
:109E10000F00F00F37D710441F068C55A00050D309
:109E20000F00F00F14D70F00F00F1F0700AA0080DB
:109E300023A0E7100F00F00F01458280B707104400
:109E400023A007020F00F00F01458280188105430F
:109E50001AC0BD3514819F07B055A00003A3C701E8
:109E60006303030002830545828005458280FD5718
:109E700005C199CE81476394B700FD5711A82A8781
:109E80002105032885FF6317C8005C439CC28147F6
:109E90003E8582808507C5B75881FD573EC619E1CA
:109EA0007D5554813B930502232005000145D5BF14
:109EB00095C1BB9BF50189492E842A898144A285DD
:109EC0002685EF10C0122AC6B24799C78504E398C9
:109ED00099FEF9B7A149CDB7E3F434FDB7050055B4
:109EE0009BA58520CD8C2320990032455DBF15C5EB
:109EF00093578501BB9707559357050193F7F70FC4
:109F000005476368F70093160501C18289E73BE3C3
:109F100006087D558280E36ED7FE93550501819D2D
:109F2000219D6F10801619E17D55828038802A842A
:109F30003755A0009304455D930640020146930502
:109F400040021305455DEF60103D85472380F40214
:109F50009F075A4B3C2D1CC00145348028809F0729
:109F60005A4B3C2D7D546313F5023755A0009307DF
:109F7000455D83C70702014491CB93064002014629
:109F8000930540021305455DEF60F038228524807B
:109F90004881FD573EC69F075A4B3C2D6319F50477
:109FA0003754A0009307445D83C707021304445D40
:109FB0007D5585C3AE8432899375F60F3B860402C6
:109FC000B2852685EF1040372AC6B2478D4599C322
:109FD000324544812685EF10802D2AC6B247EDFB1D
:109FE0008547232E240144A0A300F402D5B77D5554
:109FF000CDB79F075A4B3C2D631AF5029F07D455E6
:10A00000A00003C707027D551DC3D8236311B70203
:10A01000D84F631EC70003C71702014509CBA380B1
:10A02000070223AE07002382070082807D558280CD
:10A030003881FD573EC699E17D5534819F075A4BC3
:10A040003C2DE31BF5FE9F04D455A00083C70402FA
:10A05000E5D72E862E84D146D14513858400EF6046
:10A06000D0232AC6B247E9FB50204C306820EF10BD
:10A07000601D2AC6B24799C33245C1B713057400A3
:10A08000EF1060262AC6B247E5FB1C409CC08547FE
:10A090002381F402D5B73882FD573EC402C602C8F8
:10A0A00002CA02CC02CE99E17D5595A8DC41EDDFD4
:10A0B0009C212E84AA843B8E07019F075A4B3C2D7E
:10A0C000E394F4FEB754A0009387445D03C70702EE
:10A0D0009384445D71DB83C72702F9D73C20BB82A0
:10A0E000070191CB3B91F702A308F10039A0054588
:10A0F000AD3B61F555BFA30801009C403EC61C2046
:10A100002308F1005C403ECA1C443ECC5C24230E74
:10A11000F100EF10C0092AC4A24799C32245348236
:10A12000EF00704C2AC4A24785E36800EF00D054CA
:10A130002AC4A24781EBD0203245A285EF10E0224D
:10A140002AC4A247EF00504EEF10000CC1BF188187
:10A15000FD573EC6EF1080362AC63245148148812D
:10A16000FD573EC693B71500B307F0403EC6B24751
:10A1700099C332454481844DD0412E848C412A8933
:10A18000EF10002B2AC6B247EDF750480C484A851D
:10A19000EF10202C2AC6B247E9FFBB9404030C44FD
:10A1A0004A85EF10402B2AC6B247E1F7A6854A85BB
:10A1B000EF10A02A2AC6B247CDFF4C2C4A85EF10DB
:10A1C000602D2AC6B247D5F74C444A85EF1080333C
:10A1D0002AC6B247D9FF5C3CC9DF4A85EF10C02BC5
:10A1E0002AC6B24779B72882FD5736C63ECE2A84A2
:10A1F000EF1000242ACEF247B24699C3724524825A
:10A20000F5DE2285EF1040292ACEF247C5BF1F0395
:10A21000D42F100002831F038A2D100002831F0316
:10A22000AA2D100002831F03B42E100002831F0307
:10A23000282F100002831F03FC30100002831F032D
:10A240002A261000028328812A8405452EC632C49E
:10A2500036C2753F2246B2451247B28685472E86E2
:10A260001F0500911601A285EFF06FFE2A840545B7
:10A270005D37228524814880EFF00FF59F07F85560
:10A28000A0009C2381EBEFF0AFF4014481442285D0
:10A29000A68544802A89EF1010762A844A85AE84E8
:10A2A000EFF00FF3EDB72881F9372A842EC6EF10AF
:10A2B0009075B2459F0740420F003337F4022A865B
:10A2C0008146B385F5023305F402BA95EFE00FAD90
:10A2D00024814880EFF04FEF1F09F955A000834714
:10A2E000090091C7EFF0CFEE014422854480AA8493
:10A2F000EF1000232A8409C52685EFF06FEDF5B72E
:10A3000085472300F900CDBF4880EFF0EFEB9F07B2
:10A31000F955A0009C2381EBEFF08FEB01448144C1
:10A320002285A68544802A89EF1040222A844A8506
:10A33000AE84EFF0EFE9EDB79F07F955A0009C233D
:10A34000B1C348802A84EF10306D9307803EB30577
:10A35000F4023334F402B384A5023304A402B3B587
:10A36000A5022E9455373389A400B3349900A295E1
:10A37000AE94593FE3EF95FE6394B400E36B25FF81
:10A38000014544807D5582809F07F955A0009C239C
:10A390008DCB48802A84EF103068B304A402333494
:10A3A000A4029D373389A400B33499002E942694D7
:10A3B000A13FE3EF85FE6314B400E36B25FF014585
:10A3C00044807D55828038803757A000930707600E
:10A3D000DB97A71894432E862A84CE2B930407601C
:10A3E00099C2C84782965B948418231A040034806B
:10A3F0009F074856A0005B95A74C1C4103A387000C
:10A4000063060300D043CC478843028382809307CE
:10A41000C004B307F502B756A0001387866493867D
:10A420008664B305F7009041B107BA9741061387D8
:10A430000704637BE60090C15B95A64C1E2523159F
:10A440000500FD171EA582809CC1FDB738801F0442
:10A450004856A0005B14A44C04403E2405468C40A2
:10A46000BE95EF10401A2A240505219D2AA4DC443C
:10A470003335F50013451500348048812A841306CE
:10A48000F100A5459F040056A00023070100A30783
:10A4900001005B998418EF1040198347F10099CBB4
:10A4A000DB948418DE2891C79C4081C785452285AE
:10A4B000193F448105469305E1002285EF10C01540
:10A4C000835649018327C9000347E100B69798A343
:10A4D00083574901035709018507A19F231AF900F2
:10A4E00063E5E70085452285F93D1306F100A545A2
:10A4F0002285EF10801355B75881FD1593F7F50F9E
:10A50000BBF36705B725A3009385C56C9B85F50450
:10A510009C412A8482879F044856A000A30701001B
:10A52000DB94A44C9E2481EB014689452285EF10E3
:10A53000C00F014554811306F1009D452285EF109F
:10A54000C00E8347F100F5F7228509376DD52285C6
:10A55000453522856D3DF9B71306F100A5459F04E9
:10A560000056A00023070100A30701008149EF1056
:10A57000C00B5B9984188347F10081CFDB97841867
:10A58000DA2B45DBF82B098B4DD7BE2BE3E3F9FA29
:10A5900071A005469305E1002285EF10E0078327AF
:10A5A00009008509C20993D9090181EB1306F1005D
:10A5B000A5452285EF1060077DBF8356490183279B
:10A5C000C9000347E100B69798A383574901035791
:10A5D00009018507A19F231AF900E3E9E7FC8145FA
:10A5E0002285D533E1B71306F100A5459F04005637
:10A5F000A00023070100A30701008149EF10E0023A
:10A600005B9984188347F10091CFDB978418DA2B8C
:10A61000E30107F2F82B93761700B5D68145228522
:10A620005D3301BF05469305E1002285EF00D07E32
:10A63000832709008509C20993D9090181EB130613
:10A64000F100A5452285EF00507E6DBF835649017C
:10A650008327C9000347E100B69798A383574901B0
:10A66000035709018507A19F231AF900E3E9E7FCD5
:10A6700081452285893BE1B79F070056A000DB9703
:10A68000A718DC4381C78145014582972285F533B0
:10A690004DB59F070056A000DB97A7189C47DDB774
:10A6A0005881894763EDA70ADDC983C815001308DF
:10A6B00020076366180B83C805006362180B45C248
:10A6C00003484600BB7628040348660063E907098F
:10A6D0005C323BF327023759A0009307C95FAA9762
:10A6E0009C23AA841309C95F0144A5EBBA8936C625
:10A6F00032842EC4EF10502B6387090683A609000D
:10A70000BDC203A7490025C31305C0043385A402B5
:10A710001F070056A0005B17971854C783A649006F
:10A72000B247224616AB1F074856A000A2869305E3
:10A73000C500BA952A970CC34CC3268511479F05BF
:10A74000F8A4A200EF0050682A8401E92699854701
:10A7500026852300F900EF10302622855481370426
:10A7600000800504DDBF1F0444100080FDB7788120
:10A77000A30701003B771503A1CD39CA9F07FC55FC
:10A78000A000AA979C23AA84A1CBAE893289EF109E
:10A79000F025AA8A4E994E8A33043A4163182A0159
:10A7A000D6852685EF10D024228574811306F1000A
:10A7B0009D452685EF0070678347F100E5F3D2855C
:10A7C00013041A0005462685EF00F063228AE9B7D4
:10A7D000370400800504C9BF1F0440100080E9B79A
:10A7E0005880AA89EF109024EF105025EFF0CF9DEC
:10A7F000AA84EF1060281C411F092C57A0002320B9
:10A80000A900829719C52A842685EFF06F9C2285BE
:10A810005480832709004E859C4782972A84268589
:10A82000EFF00F9B6DF49F073157A000054798A3E9
:10A83000F9BF9F073157A0009C239DCB48808544DA
:10A84000FD5763E5A4022A84EFF00F989F072C5769
:10A85000A0009C432A8922859C4B82974A85EFF071
:10A860002F979F073057A00084A381473E854480DF
:10A87000FD573E8582809F073157A0009C2399E3B6
:10A880007D5582801881EFF02F949F072C57A000F0
:10A890009C432AC6DC4B82973245EFF06F939F07AB
:10A8A0003057A0002380070001451481B757A0004E
:10A8B00003C717731DC72880138417739F0730576A
:10A8C000A0009C2391C3453F9F072C57A0009C43A9
:10A8D00099C3DC438297EF10301601452300040032
:10A8E0002480014582809F073057A0009C2399E374
:10A8F0007D5582801881EFF02F8D9F072C57A00087
:10A900009C432AC69C4F82973245EFF06F8C0145DD
:10A9100014811880EF20000DC1280323050010804A
:10A9200002836881A30701007D549307F00F63EE53
:10A93000B70205CDBB7D06082E843289AA846D201E
:10A940002A8AEFF06F8883270A01AA899305F1000C
:10A95000228582972A8401ED8347F1004E8533D604
:10A960002741058A90A0EFF0AF86228564814E854D
:10A97000EFF00F867D54D5BF88807D5431C2930798
:10A98000F00F63EFB702B387C500130700106369C8
:10A99000F7021DC53289AE892A8AB9202A8BEFF0C9
:10A9A000AF82AA8A814483270B01B3059A003385BD
:10A9B000990082972A8419C55685EFF06F817D54DE
:10A9C000228584808504E3E024FF5685EFF04F80E4
:10A9D000C5BF19C59F073457A00088C301458280B1
:10A9E00037050080050582809F073457A000884303
:10A9F00082809F073857A00023800700828038801C
:10AA0000AA84EF10F07E2A842685EF10D07E9F075F
:10AA1000983FA3009B8787049C430581219D1B854C
:10AA2000A7043480188001455522B757A00003A71A
:10AA300007749F062C3EA30094225C43014593F7C4
:10AA400007F0D58F5CC39F073857A000054798A330
:10AA500014809F073857A0009C23A1C748802A84F0
:10AA60009307F00F63E3A704A9C1AE84493F2A8985
:10AA70002285EF10F0779F074057A0001B85A704A1
:10AA80001841C17605881C43F58F9F065A5A00006D
:10AA9000D58F1CC38327090011C0A1839CA0014549
:10AAA00044801F05911300808280370500800505D2
:10AAB000C5BF9F073857A0009C2399EF1F0591132E
:10AAC00000808280B30589002285613719E9050479
:10AAD000E36A94FE0145448048802A89AE8401449B
:10AAE000C5BF7D55CDBF9F073857A0009C23C1C36C
:10AAF00058802A849307F00F63EFA706B754A0008D
:10AB00002E8993890474EF10B06E1B85A904184137
:10AB1000C17622851C4393840474F58F9F06A5A5F6
:10AB20000000D58F1CC3EF10B06C1B85A904184121
:10AB3000130540065C4793E717005CC7EFF0DF841E
:10AB40002285753D9377140091C3220923202501A6
:10AB50002285EF10F0699B84A404984013054006F9
:10AB60005C47F99B5CC7EFF03F82014554801F05AD
:10AB7000911300808280370500800505C5BF9F07BF
:10AB80003857A0009C2395C75880B2892E84AE8484
:10AB90003309B540B387844063E4370101455480ED
:10ABA0008C203305990001463D3F850465D57D55D0
:10ABB000FDB71F059113008082809F072C3EA300E4
:10ABC00088C382801F05303EA30082806347A002B5
:10ABD0000A051F07903FA3009F074057A000AA97B0
:10ABE0003A951841014598C3B747A30003A747F911
:10ABF0009F073C57A00098C382807D55828019C56D
:10AC00009F074457A00088C3014582803705008014
:10AC1000050582809F074457A000884382804880B2
:10AC200003290500BB7F09104C410025AA844A85F1
:10AC30008920A2854A85E92880444A8521801D888B
:10AC4000A285392A9C444A8513D78700618BA1834A
:10AC500093F50708598CC18D21220F00F00F014593
:10AC60004480370500800505E5BF1F055C3EA30055
:10AC7000828001E57390053B8280BB1205017390D1
:10AC8000153B8280BB1205027390253B8280BB126C
:10AC900005037390353B8280BB1205047390453BDE
:10ACA0008280BB1205057390553B8280BB1205065E
:10ACB0007390653B8280BB1205077390753B828061
:10ACC000BB1205087390853B8280BB120509739007
:10ACD000953B8280BB12050A7390A53B8280BB1214
:10ACE000050B7390B53B8280BB12050C7390C53B7E
:10ACF0008280BB12050D7390D53B8280BB12050E7E
:10AD00007390E53B82803B12050F7390F53B828088
:10AD10001377F50FBB790508F327807D0A07019F9C
:10AD2000BD46B396E60093C6F6FFFD8E3397E50069
:10AD3000558FBA827390827D82807326907D9307AF
:10AD400087FF8A07819FBD46B396F60093C6F6FF3C
:10AD5000F18EB397F500D58FBE827390927D82807D
:10AD60009357250041113B8A070199C7BB8E070203
:10AD7000BB83170341018280F327003A3EC61C08BB
:10AD80003E95230EB5FEB2477390073AE5B7F32719
:10AD9000103A3EC60D891C083E95230EB5FEB247FB
:10ADA0007390173AC1BFF327203A3EC60D891C089D
:10ADB0003E95230EB5FEB2477390273A65BFF32741
:10ADC000303A3EC60D891C083E95230EB5FEB247AB
:10ADD0007390373A45B71880EFE01FBFEF20B05AA5
:10ADE000EF10D04701A04880EFF0EF8609C5BB0CFB
:10ADF00005017D55448089441F0440420F003729D6
:10AE00001144232099000F00F00F832709009D8B28
:10AE1000638A970005457D14EFF00FD77DF0D1BF11
:10AE20008544D9BF0145F9B7B727114423A00700CE
:10AE30000F00F00F014582803881FD573EC61F0488
:10AE400040420F00B7241144DC40858B91EF8547C9
:10AE50009CC80F00F00F02C6B72711449C4799C346
:10AE6000FD573EC63245348105457D14EFF0CFD104
:10AE700061FCFD573EC6CDB73882FD573EC602C8BD
:10AE800002CA02CC02CE6308050E044585C45845AB
:10AE90003B19071C5821BB77070210412A8414086C
:10AEA0008D451F05883EA300EFE07FFC2AC6B24710
:10AEB00081C7B2473E853482104074088D451F0516
:10AEC000A03EA300EFE0BFFA2AC6B247FDF3502030
:10AED000540889451F05603EA300EFE05FF92AC6CC
:10AEE000B247E1FB503034088D451F05703EA3008A
:10AEF000EFE0FFF72AC6B247CDFF372711441C28E1
:10AF0000724683260736B397C700D58F2320F736BE
:10AF10000F00F00F0147A6871F06D04804115444C4
:10AF200089826360D704372611445C426247D17638
:10AF3000FD160D8BF58F9BA7E71C5247C59B1D8BFC
:10AF40009BA7E702424793F7F7E07D8B9BA7E708B3
:10AF500093E717005CC20F00F00FF93D2AC6B24715
:10AF600089BF8C43B306C7008A068CC20F00F00F5E
:10AF7000050791076DB7FD5735BF37471144832744
:10AF800007B3E176FD168589F58F9BA7B71E13756C
:10AF9000F53F93F707C0C98F2328F7B20F00F00FD2
:10AFA000032547B31D8911C208C23335A000828032
:10AFB00028802A84EFE03FEA11C93B170501B74713
:10AFC000114483A747B11CC001452480B7471144F1
:10AFD00083A707B1CDBF0545CDBF1881680002C664
:10AFE000C13F854719E1B247858B3E851481488270
:10AFF000FD572EC6AA843ECCEFE0FFE5B24502CE57
:10B000002A8991C53B8605010144FD5719A00144D9
:10B0100081473ECCE24789C7624544820544CDBFA3
:10B020000146A2852685913F19C17D55FDB775372B
:10B030006DFD6317090409491F07001B0000B727AE
:10B0400011443E971C43E176FD16F58F9BA7871EA2
:10B0500093F6F43F93F707C0D58FB7061000D58F4E
:10B060001CC30F00F00F7008A2852685393755DD07
:10B070007245330525413335A0003305A04071BF2B
:10B0800005491F07041B00005DBF4882FD572EC6FF
:10B090002A843ECCEFE03FDCB2452A8991C5BB86CD
:10B0A00005018144FD5719A0814481473ECCE24708
:10B0B00091C7E2473E8544828544C5BF393FFD576D
:10B0C00075F90146A68522854D3D814765D5630307
:10B0D0000906BB1719019F07041B000037271144FD
:10B0E000BA97884361777D17798D1B25951E137458
:10B0F000F43F137505C0418D1F07FFFFEFFF798DEA
:10B1000088C30F00F00F1F0440420F00F9351DC522
:10B1100005457D14EFF04FA775F8FD573ECCE2478B
:10B12000C9FB680802CE693501E5F247898BD9D39E
:10B13000FD5749B79F07001B00004DB78147F9BF76
:10B14000B7371144984B9377E7FF19C193671700FE
:10B15000373711441CCB0F00F00F82803881FD5728
:10B160003EC21F0440420F00B734114483A7440875
:10B17000858B85EBFC4093E717003EC4FCC00F00B5
:10B18000F00F02C237371144832787081C5F585FCE
:10B19000D98FB337F000B307F0403EC29247124553
:10B1A000348105457D14EFF02F9E69F0E1BF588191
:10B1B000FD573EC61F04102700000549B73411444F
:10B1C0009149EFE05FC9FD576314250323AA2407C3
:10B1D0000F00F00FF85CFD57318B630B370183A72D
:10B1E0000408819F938767F5B337F000B307F040F9
:10B1F0003EC6B24781CB05457D14EFF0EF9871F064
:10B200007D5554810145F5BF1880EFE0DFC4BB1CBC
:10B21000050137371144832607081306A00A814722
:10B22000819E639DC60028DF0F00F00F7C5F93F7BF
:10B230000703C11793B71700B307F0403E8514808A
:10B24000FD57EDBF9307000A6305F60263E9C700E7
:10B2500093060005BB1506209306000229A8930754
:10B26000100A6303F6049306200A6306D6007D5590
:10B2700082809306000A37361144584A8177FD17B9
:10B28000F98F85899BA5B722C177FD170589ED8FB9
:10B290009BA7A7207D753D05E98F9BA7D7085CCAB2
:10B2A0000F00F00F014582809306100AE9B73B6357
:10B2B0000502BB0B05027D5582800547B737114457
:10B2C000DC4BE19BD98F3B1305021F07FFFFF3FF08
:10B2D000F98F373711445CCB0F00F00F01458280A6
:10B2E0001D47E9DDC9BF39C5B73611449C4E183139
:10B2F00093F7F7FD058B9BA7E70A3821BD9B058BCC
:10B300009BA7E7083831DD9B058B9BA7E7065821F3
:10B31000ED9B058B9BA7E7045831F59B058B9BA7FD
:10B32000E7021821F99B058BD98F9CCE0F00F00FF7
:10B33000014582807D55828005E1373711441C4BE1
:10B34000860593F5E53F93F707C0DD8D0CCB0F0025
:10B35000F00F81473E858280FD57BB1EF5013737D0
:10B3600011441C4B93F5F53FF9BF4881FD573EC290
:10B3700002C402C6C5CDD84119CF3289AE842A860F
:10B3800074008D451F05D03EA300EFE05FAE2AC2DA
:10B39000924781C792473E854481B02034008D4555
:10B3A0001F05B83EA300EFE09FAC2AC29247FDF311
:10B3B000BC20014591E3883063140900EFF05FD8A9
:10B3C0002244B2470D881A04FD8B136414001B2419
:10B3D000F410B737114423A287080F00F00FEFF0E5
:10B3E000FFD72AC29247DDF7BC20CDD763150900ED
:10B3F0000545EFF0FFD4A2471374F4F31F07FFE0F5
:10B40000FFFF8D8B1B24F40CB247798CFD8B1B2422
:10B41000F41013641400B737114423A287080F00F7
:10B42000F00FEFF0BFD32AC29247ADB7FD57A5B7D3
:10B43000BB7705049F07000400123E950A050CC166
:10B440000F00F00F30C10F00F00F014582807D55D5
:10B45000828001458280014582803B73050491C54D
:10B460000947BB8205027D5582800147B716004817
:10B4700003A6061806058D47B397A70093C7F7FFE5
:10B48000F18F3317A700D98F23A0F6180F00F00F04
:10B4900001458280014582803B78050437170048CA
:10B4A0008326072285473395A700558D2320A722A1
:10B4B0000F00F00F014582807D55828031E17D557E
:10B4C000A9C13B1016109841B717004823A0E762A6
:10B4D0000F00F00FD84123A2E7620F00F00F98454C
:10B4E00023A4E7620F00F00FD84523A6E7620F0000
:10B4F000F00F054723A0E7600F00F00F01458280A1
:10B500007D5582803B7605049F07900500123E958D
:10B510000A050CC10F00F00F014582807D55828025
:10B520001880A92805E13757A000832687749C421C
:10B5300093E747009CC2032787741C4393E72700C7
:10B540001CC314801F0580110080E5BFB757A00001
:10B5500083A68774054698421367170098C2FD5664
:10B560003E87832787749C439183858B6387C700BD
:10B57000FD16E5FA0145814582800DA01880EF0097
:10B58000304909C9EF00D0489F074857A00088C339
:10B59000014514801F0580110080E5BF9F074857B3
:10B5A000A0009C438C47C8438280BB75050389C9B2
:10B5B0009F074C57A0001B85A7040CC10145828042
:10B5C000370500800505828028822A842ECE32CC61
:10B5D00036CA3AC83EC6EF00D03A1F054C57A00005
:10B5E0001B058504084101CDD24691CA03230500FD
:10B5F000B24742476246F2452285208202831F05F8
:10B600004710008024829F074C57A0009B87A70407
:10B610009C4303A3C70002839F074C57A0009B874E
:10B62000A7049C4303A3070102839F074C57A00074
:10B630009B87A7049C4381C703A3870002831F0540
:10B6400047100080828009C6FD571CC201458280D8
:10B6500037050080050582809F077457A0003E953E
:10B6600014211307E003BBF306039F071827A30069
:10B67000B697982318C2014582809F075857A000AB
:10B680001B85A70423200500014582809F0768577A
:10B69000A0001B85A704184185891C47F99BCD8F05
:10B6A0001CC782809F076857A0001B85A7041C4108
:10B6B0000145FC43858B1CA282809F076857A00030
:10B6C0001B85A7041C410145FC438583858B1CA277
:10B6D00082809F076857A0001B85A7041C41014575
:10B6E000FC43819F858393C71700858B1CA28280B2
:10B6F0009F076857A0001B85A7041C410145FC4318
:10B700008D83858B1CA282809F076857A0001B85B4
:10B71000A70419E20145828018417C43858BF5FB23
:10B72000850583C7F5FF7D16219E5CC3DDB71F0726
:10B730006857A00081471B05A70463C4C7003E8566
:10B7400082801441F842218B7DFBD4423387F5007F
:10B75000850714A3DDB79F071C27A3009B87B704A9
:10B7600003A307006303030002831F054710008043
:10B7700082809F076857A0009B87A704984393F691
:10B7800035005C53CD9B9BA7D704F19B9376360085
:10B79000D58F93E707015CD39F077457A000AA9742
:10B7A0008CA39F077857A0003E9510A182803B6331
:10B7B0000604370500800505828018809F077457AE
:10B7C000A000AA978C23019E6D37014514803B632E
:10B7D0000604370500800505828018809F0778578A
:10B7E000A000AA97B2859023819D613701451480FE
:10B7F000B1C1488092053374B6022A89B354B602A7
:10B800001A043354B4028545EFF05FE89F07685788
:10B81000A0009B8727059C4313F7F40FA19C98CBAE
:10B82000A180C4C781454A851374F403C0CB40800E
:10B830006FF0DFE582809F076857A0001B85A70493
:10B8400018418D891C47CD9B9BA7B7041CC78280DC
:10B850009F076857A0001B85A704184185891C47CE
:10B8600093F7F7F79BA7B70E1CC782809F0768570F
:10B87000A0001B85A704184185895C57E99BCD8FE3
:10B880009BA5B7044CD782809F076857A0001B85F3
:10B89000A70414419C4E3BF7050E3727A30013075E
:10B8A000076E9B05B70498410287058ADD9B9BA71D
:10B8B000C7069CCE8280058AED9B9BA7C704D5BF97
:10B8C000058AF99BD18FF5B7058AF59B9BA7C7021F
:10B8D000CDB718803336C000B5457D37014514809B
:10B8E00018803336C000B1454537014514801880B3
:10B8F0003336C0009145493F0145148018803336E6
:10B90000C00089455137014514809F076857A00042
:10B910001B85A704184185891C4793F7F7FD9BA752
:10B92000B70A1CC782809F076857A0001B85A70421
:10B93000184185891C47BD9B9BA7B7081CC78280FF
:10B9400028802A843B87050181C5BB8205022480AB
:10B95000208065BF8545553F854522852080E1B71C
:10B960006D378145DDBF38814C22B2842A84EFF0E7
:10B970009FECCC302285E93DEC202285D1378C40EC
:10B9800022852EC6EF00B001B2452A862285EFF04F
:10B990003FE6014534819F076857A0001B85A70437
:10B9A000184185893C4BF99BCD8F3CCB82806881C7
:10B9B000B684131925009F067027A3002E8AB3852D
:10B9C00026018C419442BA891F076857A0003306AC
:10B9D00027010CC214C3CC201F076457A0002A976C
:10B9E0003EC6230007002A84EFF0FFE4CC30228516
:10B9F000EFF01FE6EC202285A13781452285613FCB
:10BA00008C4022852EC4EF008079A2452A862285AB
:10BA1000EFF01FDE2945EFE03F97B2478DC7903327
:10BA2000AC332285EFF0FFD49F075857A000CA9788
:10BA300023A047018545BB81090381452285EFF09D
:10BA4000FFE20145648105468545E1BF1F05E83EEB
:10BA5000A300828019C59F077C57A00088C30145B9
:10BA6000828037050080050582809F077C57A000F3
:10BA700023A00700014582809F077C57A0008843D0
:10BA80008280B747A30083A707F899C71F0780578D
:10BA9000A0001CC3014582801F0500120080828027
:10BAA0009F078057A00023A007008280B757A000FF
:10BAB00083A707781F075A5A5A5A98C782809F0748
:10BAC0008857A000884382809F078457A00088C3BE
:10BAD0008280F9B77DB73880B757A00083A6077872
:10BAE0009304107D3E8498561367170098D6032759
:10BAF00004781C578583858B99CF404BEF00807568
:10BB00009307803E2A86B335F40281463305F4025A
:10BB1000EFC0DFA83480FD1489C40545EFE0DF865F
:10BB2000F9B70145C5BFB757A00003A707785C4721
:10BB300093E717005CC782801880F537B757A000DD
:10BB400003A707781C4BF99B1CCB14804880AA8460
:10BB5000EF00407089E43705008005054480330418
:10BB6000950233599402EF00E06EE316A9FE3B6A9A
:10BB7000F4FF9F078857A0003759A00084C383278C
:10BB800009789F045A5A5A5A137404F084C36D37C3
:10BB900083270978984B1367470098CB984B137706
:10BBA000F7FB98CB984B1367870398CBC843137563
:10BBB000F50F498CC0C384C701454DB728812AC6FB
:10BBC000A53F32453754A0000DE1032704781C4BF4
:10BBD00093F7F7F71CCB813F032704781C4B93E7BF
:10BBE00017001CCB20816FF07FEC3B1BF501032776
:10BBF00004781C4B93E70708F1BF1F05003FA30023
:10BC00008280588061259F099C57A00023A0A9002D
:10BC10001F099057A000BD2D2320A9009F048C5719
:10BC2000A000AD2D88C01F049857A000A52D08C006
:10BC3000B52D9F079457A00088C383A7090099CB0F
:10BC40008327090081CB9C4091C71C4081C719C143
:10BC5000014554801F0543130080E5BFB757A0007E
:10BC600083A687791F07FFFFFF3F798DDC463707E3
:10BC700000C0F98FC98FDCC6828058818925AA84CB
:10BC8000152D92471F07FFC7FFFF2A8993F777807B
:10BC900093E78702F98F3EC285473EC402C601443E
:10BCA000B759A0004800B526014685450545712EC7
:10BCB000E12683A749799C43858B91CF4A85EFE0A4
:10BCC000AFEC93071400636694001F0544130080D3
:10BCD00054813E84C1BF0145E5BF48819C212A842F
:10BCE0002E898E0793E717003EC29307F5FF3EC4E7
:10BCF00002C66137AA840DE54800212E854702C09F
:10BD000063E28702B757A00083A7477902479335BC
:10BD10002400014698C393C5150001453D26A92E70
:10BD200026854481B306F90094223307F100850784
:10BD3000A30FD7FEF1B71881EFF03FF499476C00DD
:10BD400005452306F100EFF05FF919E1EFF0FFF28E
:10BD50001481488636C62A89AE843284E93FAA8790
:10BD6000B24639E936CA4808B98236CE22CC5524C3
:10BD70004A85EFF0BFEEA2862686930500040810E0
:10BD8000EF40B051FD570DE9137634003336C00053
:10BD90001B068644219E1C100147B755A000931630
:10BDA0000701C18263ECC600054685450145712C3B
:10BDB000E124EFF09FECAA873E85448683A645796F
:10BDC000884391079B86E60488C20507C9BF28817E
:10BDD0002A84EFF01FE3EFF05FEA1DE931469F058B
:10BDE000A814A3004800EFC0DFC648001D24014688
:10BDF00085450545992C4924B757A00083A7477965
:10BE00001F07FFFFFF009C43F98F1CC0EFF0FFE608
:10BE10002481C167636CF60C98814049B284AE8975
:10BE20002A89054AB75AA00025E0B757A00083A683
:10BE3000077993D9090113D6F4009C4E01479395D5
:10BE40000701C1819BA535218CCE93771600C1CF08
:10BE50009C4A1F06FFF0FFFF3D8BF18F9BA7E71069
:10BE60009CCA032549000D240325C9009377857FCB
:10BE700091C3892CB757A00083A7C779054798CBF2
:10BE8000EFF0BFDF01450DA01C206380470399C779
:10BE9000BB86E7021F054513008039A008309305D3
:10BEA0002400EFF09FE315CD94813820834B3400BC
:10BEB000034B44000E07136717003AC252C402C670
:10BEC000EFF0BFDB4800B122014685450545B52AA4
:10BED000652283A74A799C43B3D77701858BE39B7F
:10BEE00067FB190491B70582050785B73705008000
:10BEF000050582808885AA892E8AB28413040004ED
:10BF000093DAE6003689375BA00099E00145A1A8E5
:10BF1000EFF0BFD629E963F38400268448004AC2C3
:10BF200022C456C6FD204E85EFF05FD30546054579
:10BF30008545212A912293773400B337F0000325F9
:10BF40004B799B8787441408A19F01473686931538
:10BF50000701C18163EAF500A286A2855285EF4000
:10BF6000D03319C97D5584859B05E5048C410507AF
:10BF7000910623AEB6FEE1BFA299229A818C71B7D9
:10BF800088809377F503130400041D8CAA892E89F9
:10BF9000B284B68A637386003284D6862286CA85C6
:10BFA0004E85EFF01FDB2A8A05E9818C95C4229922
:10BFB000130B00044E94A68963749B00930900043C
:10BFC000D6864E86CA852285EFF0BFD801E9B384B4
:10BFD00034414E994E94E5F0528584802A8AEDBF13
:10BFE00038822EC6AA843284EFF0FFD4B2450DE128
:10BFF00048082ECA02CC02CE29282685EFF01FC69B
:10C0000013461400814501458920BD20EFF0FFC68D
:10C010003482B757A00003A687791C410C45184607
:10C0200093D63700819E137707F0558F5441AD8327
:10C030009D8B9D89C607FD1693F6F6039BA7B7084F
:10C040009BA7D71218C61CC28280B757A00003A7AF
:10C050008779058985891C43058A93F7F7EF9BA7A4
:10C06000A71093F7F7F79BA7B70EDD9B9BA7C70613
:10C0700093E737001CC38280B757A00003A78779D6
:10C080001C43858BF5FF8280B757A00003A6077974
:10C09000370700809F06FF00FFFF1C42D98F135710
:10C0A0003500019FF58F9BA7E7109356B5009D8A39
:10C0B0002D8193F707FC1377850333E5D700598D5E
:10C0C00008C28280B757A00083A6077913573500AE
:10C0D0001F06FFFF3FC09C42019F2D81F18F9BA750
:10C0E000E72C1F07FFFFF8FFF98F1D899BA7A720EB
:10C0F00037070040D98F9CC2828048814C001305CD
:10C10000000202C202C402C6EF10703D224737444B
:10C11000A300370920004A97930444F24C0013050A
:10C120001002D8D0EF10B03BA2479545130544F25A
:10C13000CA97DCD8EFD0FF89448138803754A000FB
:10C140002E87AA861306F007930500081305447A84
:10C15000EF5080302A869307447A3B1305FF9304FF
:10C16000447A982011CFB297238007009F07A057E9
:10C17000A000882381469305447A30806FE02FDF4A
:10C18000348028802A84EFF07F8CAA852285208045
:10C190006FF0AFC19F07743FA3008CC382809F07DD
:10C1A000743FA30088438280BB130502B7D70044C5
:10C1B000054798DBD8DB828082808280397106CE89
:10C1C00022CC2ED232D436D63AD83EDA42DC46DE03
:10C1D00011C92A84EFC09FB311C54C1022852EC609
:10C1E000EFF0BFF5F2406244216182806FD0CFFD55
:10C1F0002E856FD0EFFDB7570040D84F984FC84FEE
:10C200008C4FA19D82809F07783FA3008843828046
:10C210001F05C004004482809F077C3FA300884321
:10C2200082809F077C3FA30088C382801880EFF044
:10C23000DF9C10806FF01F826FF03F838280288028
:10C240002A84EFD06FF89F07843FA30080C320802B
:10C250006FD00FF89F07843FA30088438280188027
:10C26000EFE0BFA010806FE09F991F05F027A300AB
:10C270008280054582801F050C28A3008280370537
:10C28000200082801F05FFFF9F0082801F050001A4
:10C29000004882801F050002004882801F0540027E
:10C2A000004882801F050003004882801F050004AB
:10C2B000004882809F07883FA300884382809F07B1
:10C2C0008C3FA300884382808280014582808280E7
:10C2D0005881EFF0DFFEAA84EFF0DFFD93078002C4
:10C2E0003EC285472A8902C63EC40144B759A00010
:10C2F0004800EFF01FD2014685450545EFF0FFD419
:10C30000EFF09FD783A749799C43858B91CF4A85CE
:10C31000EFE08F8793071400636694001F054413B2
:10C32000008054813E84E9B70145E5BF48812A89F0
:10C330002E84B284EFF0DFF992471947E19B93E72F
:10C3400017003EC263040900130700059247480026
:10C3500002C493F777809BA7E70693F7F77F3EC267
:10C3600002C6EFF01FCB014681450145EFF0FFCD3E
:10C37000EFF09FD085473EC4B757A00083A7477909
:10C380000E041364140022C202C684C34800EFF0F6
:10C390005FC8014685450145EFF03FCBEFF0DFCDAB
:10C3A00044811881019D85470E053EC402C62AC2FC
:10C3B000EFF01FF24800EFF0DFC501468545054567
:10C3C000EFF0BFC8EFF05FCBB757A00083A7477966
:10C3D00088431481B70702006365F502B707400080
:10C3E00063E1B70218801306800285450545EFF02A
:10C3F000FFF30946930510030545EFF03FF30145B0
:10C400001480014582801880714685450545EFF00E
:10C41000FFF1094693051003054510806FF01FF1E9
:10C420001881680002C6EFF09F9A01E932479F0722
:10C43000C84016006314F700792014813705008086
:10C440000905E5BF78802A898D449549130A500370
:10C45000B73AA3004A85EFF0DFF41374F50F631FBA
:10C4600039031374C4091114133414008545F146BB
:10C4700019E41376F50F13850A85EFF03FD4EFD05A
:10C48000BFE8130640068146EFC08F910505EFD047
:10C49000BFEF05C8FD14DDFC01457480631A490136
:10C4A0001374340479141334140089458946C9B7C8
:10C4B000137414060114133414008D4593060002FE
:10C4C00045BF7D55D9BF688081448D491545EFF042
:10C4D0007FF72A8A13055003EFF0DFF62A895545C6
:10C4E000EFF05FF62A8463170A046308090209461D
:10C4F000930510030145EFF07FE319C41306000212
:10C50000C5450145EFF09FE21305C0038504EFD058
:10C51000BFE2E39D34FB7D5401A86DF181E81F0566
:10C520002828A300EF00A06F228564801F05402803
:10C53000A300CDBF714685450145EFF03FDFE30E17
:10C5400009FA75B75C459B85B70494411C491B8665
:10C55000C70493F776001842BB9B07011D8B631439
:10C56000F7029F072458A000D4C31442D4C75449EB
:10C5700094CB544194C31445637BD700184D94C7A2
:10C580000145D8CB82801F054613008082801F059D
:10C590004913008082809F073C58A0009C2399CFBC
:10C5A0001F072458A0001843B307B500636CF700B9
:10C5B000637AF50063E8B700014582801F054013E8
:10C5C0000080828037050080050582807880832A7C
:10C5D00045003769A000AA8903244982032A8500FF
:10C5E000EFF0FFC963F6AA001F05421300807480B4
:10C5F0001309498263738A00528483A44900FD149D
:10C60000A294EFF03FC8E36195FE23208900014525
:10C61000F9BFB767A00003C7C78359EF58822A84C0
:10C620001389C783EFF05FCA6808EFF04FFA51E152
:10C630000C201030F2492EC632C4EFF01FC3AA847A
:10C64000EFF03FC32246B245AA86A6870147639909
:10C65000E604EFF05FC205468145EFF0BFEE31E939
:10C660009F073D58A000054798A32285EFF01FF6CD
:10C6700029E13765A000032645824C401305458219
:10C68000EFF02FF91DE585472300F9009F073D587E
:10C69000A0009C23014591CF1F054113008011A8E4
:10C6A0003E85F10703A847FE63960901EFF09FE975
:10C6B0004DDD5482050761BF0145828088812E8A45
:10C6C000B2852A89B284EFF01FED3DE1EFF0FFBFA4
:10C6D000137B3900AA8A63020B069147B38767412F
:10C6E0003309694193F9F40F63E7F4009149B38981
:10C6F000694193F9F90F9F072458A000D4431146CC
:10C700006C004A8502C6EFF0EFFE2A8411ED7C0032
:10C71000CE8633866701CE855285EF40003811C939
:10C7200037050080130445005685EFF05FBA228577
:10C73000848111094E9AB384344193F9C4FF638113
:10C7400009029F072458A000D4434E86D2854A850B
:10C75000EFF04FFA2A8469F94E9A4E99B384344126
:10C760000144F9D09F072458A000D44311466C001F
:10C770004A8502C6EFF00FF82A84A6867000A685C7
:10C780005285EF4080314DD137040080110469BFDC
:10C7900098812E8AB285AA843289EFF0DFDF2A845D
:10C7A00071E5B38524012685EFF0DFC293FA3400EA
:10C7B0002A8B63880A069147B3875741B384544153
:10C7C0009379F90F6367F9009149B389594193F956
:10C7D000F90F9F0B2458A00083A64B0011466C0054
:10C7E0002685EFF02FF12A8409ED7C00CE86528653
:10C7F000CE8533855701EF40402A01C937040080B8
:10C8000011045A85EFF03FC095A083A6CB00268582
:10C8100011466C00EFF0CFF62A8491044E9A33094A
:10C8200039419379C9FF71FC638009029F0724583D
:10C83000A000D447D28526854E86EFF06FF44E9A3D
:10C84000CE943309394131E1E30D09FA1F0424582C
:10C85000A000544011466C002685EFF0AFE909C9ED
:10C860005A8537040080EFF01FBA110422859481A5
:10C87000CA86528691456800EF40202275F15444E3
:10C8800011466C002685EFF0AFEF2A849DBFA8808B
:10C890002A892E84EFF03FD021E9B3058900FD7786
:10C8A00013974501B374F90041CFED8F0567370544
:10C8B0000080BA970505631999026397F5022685EA
:10C8C000338A9540116BEFF0FFB02A8C0149814902
:10C8D000814A9F0B2458A0007D1B631D0A0401445C
:10C8E0006285EFF05FB22285A48003A70B011B07CE
:10C8F000F704032907009359E900CE8A63663A01D9
:10C900001387F9FF658F01CB850703A78B00E3EE43
:10C91000E7FC6383E702337969011B29391D01466E
:10C92000CA852685EFF0CFEB2A845DF9330A5A4198
:10C93000D69465B78547D1BF1F04471300804DB714
:10C94000E30F99F637050080050579BF88819F07B9
:10C950007828A3005B95A7062621138A7400135A32
:10C960003A00636F460703590500B286AE89014657
:10C97000B6854E85EF40201AB36799009D8B4A8497
:10C9800091CB416ACA94A14A7D1A054B634B94002E
:10C99000014539A05286935539004E85EFD0DFFD11
:10C9A000848113767400935534001305F100EFD0A1
:10C9B0005FF77DF58347F1008DC3B307244133C78B
:10C9C0005703B3E75703337747014E971423B3F761
:10C9D0004701B317FB00D58F1CA30504219C7DB72D
:10C9E0007D557DBF1880EFE0EF9D10806FD07FFEFA
:10C9F0002181019D8280019D828089C53B72051342
:10CA00006FF0DFF47D55828018809528BB130501F7
:10CA10001305900210806FE04F9A6545E5BF6FC027
:10CA20003FF718819F07B698A2003EC29F07C6999C
:10CA3000A2003EC648009F071ECAA2003EC4EFC027
:10CA40005FE23765A0009F0700000100930585B0F5
:10CA5000BE95130585B0EFC01FE614811880EFD096
:10CA6000FFE41F05B80B0000EFD01F9237270040EE
:10CA70008327071193E747002328F7101480B7078F
:10CA80000040C84B058982802880EFF05FFFBB180B
:10CA9000050137346E01930504600145EFF08FEF17
:10CAA0006145EFF00FF81305046020806FF02FF957
:10CAB00037646202930504A00145EFF0AFED130562
:10CAC0008002EFF00FF6130504A0C5B728803734B5
:10CAD000004085472322F44A0545EFD0FF8A8D4761
:10CAE0002322F44A3717004483274713B70604006C
:10CAF000D58F232AF7122480B7E7004403A787863F
:10CB00001377F7F81367070323A4E78603A7C786FD
:10CB10001377F7F81367070223A6E78603A70787AB
:10CB20001377F7F81367070223A8E78603A7478759
:10CB30001377F7F81367070223AAE78603A7878707
:10CB40001377F7F81367070223ACE78603A7C787B5
:10CB50001377F7F81367070223AEE78682809F07F3
:10CB60003F58A000054798A382809F073F58A00028
:10CB700023800700828018819F073F58A0009C23D4
:10CB8000A307A10081EB894605469305F100014505
:10CB9000EFD0FFBD14819F073F58A0009C2389EF71
:10CBA00018812AC6EFC08F96B2452A869306007D6B
:10CBB000014510816FD0BFBB82809F073F58A00006
:10CBC0009C23A9EF9880AA841F05F028A3002E8A31
:10CBD0000144EFF05FFC0149A54A1D4B930B000394
:10CBE000A14913D7C4019377F70F1385070363F4A3
:10CBF000EA0013857703920463050A00EFF0BFF79C
:10CC000011A8E31D09FEE30B64FF63057501EFF056
:10CC10009FF605490504E31634FD94808280188050
:10CC2000EFF07FF71F055032A30010806FF0BFF6C2
:10CC300028802E84EFF03FF622858145EFF0FFF744
:10CC40001F055032A30020806FF0FFF428812E844E
:10CC500032C6EFF05FF481452285EFF01FF61F0525
:10CC6000EC28A300EFF03FF3324681453285EFF028
:10CC7000DFF41F055032A30020816FF0DFF128821E
:10CC80009F079C3FA3002380070093079002230681
:10CC9000F10093073007A307F1002307F1001C41BF
:10CCA0001307A002A306E1003EC85C2178212304FB
:10CCB0000100ED17230AF1009307F7FF819FBBFDE9
:10CCC0000702230BE1005C3105443808FD17A30A75
:10CCD000F10081463C0010086C0001453ECC22CE9C
:10CCE000EFD01F9C0145EFF04FCD9F073E58A000AD
:10CCF00080A32482230B0100F9B7370700401C47AB
:10CD00003D8993F7F7F09BA7A7081CC7828038805E
:10CD1000B707004080471F05F428A30011803D8815
:10CD200093041400A685EFF0BFF013054006EFD082
:10CD3000AFE03B03040F268530806FF01FFCEFD07F
:10CD40009FB37300501001A02880B7070004F3B709
:10CD500047303764A000130704841C431304048481
:10CD600085071CC3C92238559F0748D3A200630515
:10CD7000F700552A3C558297B7070004F3A74730C0
:10CD80001C40FD171CC024802880B7070008F3B79B
:10CD900047303764A000130704841C431304048441
:10CDA00085071CC3492278559F0748D3A200630515
:10CDB000F700952A7C558297B7070008F3A74730FC
:10CDC0001C40FD171CC024802880B7070010F3B753
:10CDD00047303764A000130704841C431304048401
:10CDE00085071CC3892238599F0748D3A2006305D1
:10CDF000F700152A3C598297B7070010F3A7473070
:10CE00001C40FD171CC024802880B7070020F3B702
:10CE100047303764A000130704841C4313040484C0
:10CE200085071CC3092278599F0748D3A2006305D0
:10CE3000F700D5287C598297B7070020F3A7473021
:10CE40001C40FD171CC024802880B7070040F3B7A2
:10CE500047303764A000130704841C431304048480
:10CE600085071CC3C920385D9F0748D3A20063050E
:10CE7000F70055283C5D8297B7070040F3A747307D
:10CE80001C40FD171CC024802880B7070080F3B722
:10CE900047303764A000130704841C431304048440
:10CEA00085071CC34920785D9F0748D3A20063050E
:10CEB000F70095287C5D8297B7070080F3A747307D
:10CEC0001C40FD171CC024803880EF40F065B7641B
:10CED000A000138704841C4385071CC3EF405066E1
:10CEE0007324203489208567FD177D8C0A042295E0
:10CEF00018419F0724CFA200938404846306F7009F
:10CF00001D2022951C418297EF4010629C40FD1726
:10CF10009CC030806F40D062732520348567FD1738
:10CF20007D8D828001A01F052084A20082803DC1EA
:10CF30004880032945002A841F054C29A300CA857F
:10CF4000EFF0CFA7B7070080B1076312F9041F0500
:10CF50006029A3008964EFF06FA6A1042685EF0085
:10CF600090345C4C2285C1075CCCEF00704A9F076F
:10CF70005858A0009C4381C7A2854A858297A68500
:10CF80000945EF00D032014540806FD09F8A896407
:10CF90009104E9B7828028802A841F05BC2BA30056
:10CFA000EFF0CFA12E201F05F42BA300EFF00FA16F
:10CFB0001C481F050C2CA300CC4BEFF02FA01C48E5
:10CFC0001F05242CA3008C4BEFF04F9F1C481F051E
:10CFD0003C2CA3008C47EFF06F9E1C481F05542C7F
:10CFE000A300CC43EFF08F9D1C481F056C2CA300C1
:10CFF0008C43EFF0AF9C1C481F05842CA30083A535
:10D00000C708EFF0AF9B1C481F059C2CA300CC4F1A
:10D01000EFF0CF9A1C481F05B42CA300CC47EFF0CB
:10D02000EF991C481F05CC2CA3008C4FEFF00F99F3
:10D030001C481F05E42CA30083A58708EFF00F9878
:10D040001C481F05FC2CA30083A54708EFF00F9791
:10D050001C481F05142DA30083A50708EFF00F96A9
:10D060001C481F052C2DA300EC47EFF02F951C4802
:10D070001F05442DA300AC47EFF04F941C481F053B
:10D080005C2DA300EC5FEFF06F931C481F05742D1F
:10D09000A300AC5FEFF08F921C481F058C2DA300FE
:10D0A000EC5BEFF0AF911C481F05A42DA300AC5B17
:10D0B000EFF0CF901C481F05BC2DA300EC57EFF0FC
:10D0C000EF8F1C481F05D42DA300AC57EFF00F8F36
:10D0D0001C481F05EC2DA300EC53EFF02F8E1C48CD
:10D0E0001F05042EA300AC53EFF04F8D1C481F0505
:10D0F0001C2EA300EC43EFF06F8C1C481F05342E50
:10D10000A300AC43EFF08F8B1C481F054C2EA300EF
:10D11000CC5FEFF0AF8A1C481F05642EA3008C5F24
:10D12000EFF0CF891C481F057C2EA300CC5BEFF0ED
:10D13000EF881C481F05942EA3008C5BEFF00F882E
:10D140001C481F05AC2EA300CC57EFF02F871C48BE
:10D150001F05C42EA3008C57EFF04F861C481F05F7
:10D16000DC2EA300CC53EFF06F851C481F05F42E76
:10D17000A3008C53EFF08F841C481F050C2FA300D5
:10D18000EC4FEFF0AF831C481F05242FA300AC4FDA
:10D19000EFF0CF821C481F053C2FA300EC4BEFF0B3
:10D1A000EF811C481F05542FA300AC4BEFF00F81FB
:10D1B0001F056C2FA30020806FF04F805441B7678C
:10D1C000A0001387478408CB1385478436A36FF0EC
:10D1D0009FDC28802A841F059C2BA300EFE01FFE04
:10D1E000228520806FF09FFD28802A841F05CC2A8D
:10D1F000A300EFE0BFFC228520806FF03FFC288079
:10D200002A841F05802AA300EFE05FFB228520808F
:10D210006FF0DFFA28802A841F05A82AA300EFE018
:10D22000FFF9228520806FF07FF928802A841F056E
:10D23000182BA300EFE09FF8228520806FF01FF8E5
:10D2400028802A841F05F82AA300EFE03FF72285F3
:10D2500020806FF0BFF628802A841F056C2BA30066
:10D26000EFE0DFF5228520806FF05FF528802A84CB
:10D270001F05402BA300EFE07FF4228520806FF094
:10D28000FFF328802A841F05542AA300EFE01FF330
:10D29000228520806FF09FF228802A841F05282A8B
:10D2A000A300EFE0BFF1228520806FF03FF12880DE
:10D2B0002A841F05FC29A300EFE05FF0228520806F
:10D2C0006FF0DFEF28802A841F05E829A300EFE034
:10D2D000FFEE228520806FF07FEE28802A841F05D4
:10D2E0007029A300EFE09FED228520806FF01FEDF5
:10D2F00028802A841F059029A300EFE03FEC2285B7
:10D3000020806FF0BFEB28802A841F05C829A30066
:10D31000EFE0DFEA228520806FF05FEA28802A8430
:10D320001F053429A300EFE07FE9228520806FF0FC
:10D33000FFE828802A841F05B029A300EFE01FE83A
:10D34000228520806FF09FE71880EFF0FFBCAA8550
:10D350001F050829A300EFE07FE601A01880EFF089
:10D36000BFBBAA851F05A82FA300EFE03FE501A0E2
:10D370001F058003200082809F075C58A0001CC10D
:10D380000145828028812A841F052C30A300EFF0FC
:10D390009F80BB1304641F054430A300EFF0AFFF70
:10D3A000A9473357F4026800230701003377F702D7
:10D3B000B377F402130707032306E10093870703FB
:10D3C000A306F100EFF02FFD1F054830A300EFF09A
:10D3D0008FFCBB1304641F05E030A300EFF0AFFB2C
:10D3E000248138812A84AE8411469305800F680019
:10D3F00002C6EFD06FD819C5AA851F05D02FA3008C
:10D40000EFE0DFDBB2473D8C658C11C41F05F02FC8
:10D41000A300EFE0BFDA014534816FF0CFF538802B
:10D42000AA84EF4070102A842685EFC0CFD92285C8
:10D4300030806F40F01038802A84EF40F00EAA84CC
:10D440002285EFC0EFD42A842685EF40700F228515
:10D4500034809F07A03FA3001CC10D4582809F0719
:10D46000C83FA300D44389CE9843814711070326C0
:10D47000C7FF6307A6008507E39AF6FE0145828091
:10D480000545828028812A844C0013051002EF0094
:10D49000100519E53247A247BA977D77BA971CC0A5
:10D4A00024813881AA842E84130510024C00EF00D9
:10D4B000100309E93247A247BA977577BA979CC01B
:10D4C0008D671CC034813881AA842E841305100214
:10D4D0004C00EF00D00009E5A2479CC0B2471CC039
:10D4E000348118801305401FEFC01FE510806FD0F6
:10D4F0009F8E18801F0584D3A200EF10103419C529
:10D500001F050430A30010806FE05FCB14806FD044
:10D510008FBD370520008280370580008280B2876A
:10D520002E86BE856FF08F999880330AB5009317C9
:10D530004A01AA84D28991C7FD79B3793A018567F6
:10D54000BE990565EF00B001AA8A09C90565EF001B
:10D5500010012A8B01E95685EF0010023704008084
:10D56000150481A87D7933F92401B38424418DE425
:10D57000B38B494163910B04B38529414A85EFF090
:10D580000FB12A840DE1A1E0638F0B005E86DA857E
:10D590005285EFF0EF9F35A82686D6854A85EFF0B5
:10D5A000EF912A8471D55685EF00007D5A85EF00F2
:10D5B000A07C228594805E86DA855285EFF00F90FC
:10D5C0002A8475F155BF2686D6854A85EFF04F9C93
:10D5D00045DD2A84C9BF48802A84AE84328999E611
:10D5E0002686CA85228540806FF08F9AEFF0DFF3A0
:10D5F00065D9448018814C000D45EF00406E81478D
:10D6000019E52247B7072000BA97938707043E859C
:10D61000148128802A840C594855EFF09FDC01E9D9
:10D620008325C4110325841120806FF09FDB2480A3
:10D6300028819F0736D4A2003EC29F071ED4A200B5
:10D640003EC448009F071AD4A2003EC6EF00D0494E
:10D650002A8401C91F054C30A300EFE03FB62285A4
:10D660002481EFF01FE91F056430A300EFF02FDBEA
:10D67000FDB7188148414C00EF00A07909E5B2459B
:10D680002245EFF07FEA14814881F1477851130970
:10D69000C5063EC485472306F10023000100A30010
:10D6A0000100230101004AC29F07E196783C014432
:10D6B000631DF7029F045C58A000B707000313879F
:10D6C000D7002A84CD07F1464A86F1451385C40365
:10D6D000D8D89CC0EF30603C19C91F057430A30036
:10D6E00037040080EFE09FAD110422854481F146AC
:10D6F0004A86F14513858400EF30203A09C51F059D
:10D70000AC30A300F1BF1304C408C1462286C14552
:10D7100013858405EF30603809C51F05E430A30088
:10D72000C1B7C1462286C14513854402EF30E036B9
:10D7300009C51F051831A30065B7EFC02FEB2A8478
:10D7400001C9AA851F054C31A300EFE03FA771BFB7
:10D75000D0588A8513858403EFC0EFC32A8411C98A
:10D76000AA851F058031A300EFE05FA5EFC00FED94
:10D77000ADBF90408A8513854400EFC0CFC12A8495
:10D780002DD5AA851F05C431A300EFE03FA3885C17
:10D79000EFC02FC8E1BF78519F07E196783C630442
:10D7A000F7000145828038809F045C58A000885CA7
:10D7B000EFC02FC62A84C840EFC0AFC5498CEFC068
:10D7C000EFE7418D34809C2189E723200500014546
:10D7D0008280930700301CC123800500CDBF2880C4
:10D7E00078529F07E196783C01446318F702AA87B4
:10D7F0001F055C58A000AE889305450248410148CA
:10D80000BE8601474146EFC06FE42A8419C5AA8548
:10D810001F050832A300EFE07F9A2285248028802C
:10D8200078529F07E196783C01446318F702AA8773
:10D830001F055C58A000AE8893058505085D01486A
:10D84000BE8601474146EFC06FE02A8419C5AA850C
:10D850001F055432A300EFE07F9622852480388094
:10D860002A84EF40604CAA842285EFC06F922A84FC
:10D870002685EF40E04C228534803880AA84EF4032
:10D88000A04A2A842685EFC00F94228530806F40FD
:10D89000204B3881AA842E84B146B1450146480008
:10D8A000EF3060274C0013051002152905E53245BD
:10D8B000A247B7064000AA977975AA977D5563EBF2
:10D8C000F6003387870063E7E6002286A6853E855B
:10D8D000EFE0DFDE3481C880AA8BAE8AB28999EA94
:10D8E0004E85EFF0DFF7AA8455E937040080150470
:10D8F0002285C480338AC50093174A01528991C793
:10D900007D7933792A0185673E990565EFF03FF50A
:10D910002A8B61DD0565EFF09FF42A8C09E55A85B5
:10D92000EFF0BFF5D9B7FD74B3F49A00338D9A4088
:10D9300063170D02B30C494163920C04B30599407F
:10D940002685EFE0DFF42A8415E163110D04638F6F
:10D950000C0081466686D2856285B53F35A86A8609
:10D96000DA852685EFE09FD52A8469D55A85EFF0C0
:10D97000DFF06285EFF07FF025D49DBF6686E285FB
:10D980005285EFE0BFD32A8475F14DBF81466A8688
:10D99000A6855A85893745DD2A84C9BF4E86DE852E
:10D9A0005685EFE0FFDE2A840DE137062000CE86A3
:10D9B0005696CE852685EF30400E2A8419E54E8690
:10D9C000DE852685EFB0AFB22A842685EFF0FFEA28
:10D9D00005B73881AA842E84B146B1450146480076
:10D9E000EF3060134C0013051002D52C05E5B2474B
:10D9F000A245370740007D55BE95F977BE95636B0C
:10DA0000B700B38785006367F700854622862685C1
:10DA1000EFF07FEC3481288302C402C602C82DC90E
:10DA20002A842C00130510025D2C3DE1F14522856E
:10DA3000EFF03FE631ED3247144CB70720001F06E8
:10DA40002FBA458FBA976387C6048C439F0633F37A
:10DA50007C4B6391D5048C4793060010639CD502E0
:10DA600083A6471285453ECC938606303ECE2ECA0D
:10DA700036D036D202D432D6B707400063EAE70088
:10DA8000369763E7E700F1454808EFF09FF419C1C6
:10DA9000014509A8F1452285EFF0BFDF75F908407F
:10DAA0003B7CF502248318803D221080E9A8188170
:10DAB00001452EC6152AB2452E85EFF0DFFE1081F6
:10DAC0006FD06FB15884B2862A89AE8432842E8694
:10DAD000AA851F05A032A300EFE04FEEEFB0DFEE06
:10DAE0009F07C458A0009823AA8921E3054798A35B
:10DAF0002300210326D2EFC00FFB2AD4081022D620
:10DB0000D528130600028145081002C802CA02CCBB
:10DB100002CEEFA03FE922DAF32710343EDC8A87F9
:10DB200068003EC62122081015229F07C858A00091
:10DB30009C4391C3829789658D050945EFF03FF7B6
:10DB40004E85EFB0FFE854849F07D03FA30003A3A6
:10DB50000700630503001386B0FF02831881854721
:10DB6000A307F1008347F100819FEDFF1481930625
:10DB7000C00F1F061440A3009305C00F1F05CC580B
:10DB8000A0006F2090713747A3009307470183D708
:10DB9000870D896613860604130747016389C70248
:10DBA000636CF6008DC785066383D7029F07AFBEFF
:10DBB000ADDE2324F70E8280A16685066389D70037
:10DBC0009F06F0F000006384D7009166E9BF9F07CD
:10DBD000ADDEADDEF9BF9F071440A300238D070C17
:10DBE000239CA70C6FF0BFF89F071440A300238D60
:10DBF000A70C828018802A861F051440A300C14606
:10DC0000C1451305450AEF20506910806FF03FF6BB
:10DC100018802A8693060009930500091F05144001
:10DC2000A300EF20906710806FF07FF419CD18806B
:10DC30002A861F051440A300D146D14513050509C6
:10DC4000EF20B06510806FF09FF2828058499F07E7
:10DC50001440A30023A6E708184DD8CB6FF03FF17E
:10DC60004880EFF0EFF018419F074BA5874B6315F5
:10DC7000F7062A84EFF0CFEF2A894624EFF04FEF22
:10DC800014403767A0009307879C94C35440130344
:10DC9000879CD4C3144494C77424D4C73BEF0610A4
:10DCA0001307879C8147CA9441481B86F406144297
:10DCB00093851700AA9714CB9B06B30883284600C8
:10DCC000902641071B26161190C6FC379CA6AE87EE
:10DCD000E39D05FD0145448037350080EDBFBDC1A2
:10DCE0003767A0009307879CD0471307879C81471D
:10DCF00063E8C7023881AA8468002E8402C6EFF068
:10DD0000AFE719C9B24789CB0147BE869042A10748
:10DD10006391C402DC4295E31F0503300080348127
:10DD200085079B06F70803C886006301A802819F48
:10DD3000C1B70507E31BE5FCC5B7054718A05CC0E4
:10DD40000145F1BF1F05023000808280238005005D
:10DD50009C420145DCC19C46A1839CC582802880F1
:10DD60002A848D2B1C4199C7B523032305002285E6
:10DD700020800283014524801DC538802A84EFF06D
:10DD80004FF9AA84EFF04FF963659400AA94636B8E
:10DD9000940089235C4199C7352B032345002285D4
:10DDA00030800283348082801F05D85AA000828090
:10DDB0003881AA84680002C6EFF0CFEC09C92A8432
:10DDC0001F05C832A300EFE06FBF22853481130521
:10DDD000C006EFF0DFF888C02A8611E91F05FC3283
